:020000022000DC
:1060000000000120756302005D6302005F6302000F
:106010006163020063630200656302000000000028
:1060200000000000000000000000000067630200A4
:1060300069630200000000006B6302006D630200F0
:10604000F18702006F630200358C02006F6302006B
:106050006F6302006F630200B18A02006F63020087
:106060006F6302006F6302006F6302006F630200E0
:106070006F6302006F6302006F6302006F630200D0
:106080006F6302000D7902006F6302006F6302000C
:106090006F6302006F6302004DB802006F6302007D
:1060A0006F6302006F6302006F6302006F630200A0
:1060B0006F6302006F630200000000000000000038
:1060C0006F6302006F6302006F6302006F63020080
:1060D0006F6302006F6302006F6302000000000044
:1060E00000000000000000000000000000000000B0
:1060F00000000000000000000000000000000000A0
:10610000000000000000000000000000000000008F
:10611000000000000000000000000000000000007F
:10612000000000000000000000000000000000006F
:10613000000000000000000000000000000000005F
:10614000000000000000000000000000000000004F
:10615000000000000000000000000000000000003F
:10616000000000000000000000000000000000002F
:10617000000000000000000000000000000000001F
:10618000000000000000000000000000000000000F
:1061900000000000000000000000000000000000FF
:1061A00000000000000000000000000000000000EF
:1061B00000000000000000000000000000000000DF
:1061C00000000000000000000000000000000000CF
:1061D00000000000000000000000000000000000BF
:1061E00000000000000000000000000000000000AF
:1061F000000000000000000000000000000000009F
:10620000354936480A1A02D0072291438D4634494F
:1062100034480A1A06D00722914381F309880222E2
:1062200082F3148830483149314A00F044F831484B
:106230003149324A00F03FF831483249324A00F0E1
:106240003AF832483249334A00F035F83248334997
:10625000334A00F030F833483349344A00F02BF821
:1062600033483449344A00F026F83448344900228F
:1062700000F02CF833483449002200F027F8334866
:106280003349091A082902DB002202604160314AC1
:1062900090471F481F49884205D00268043003B464
:1062A000904703BCF7E700208646EC46002000211B
:1062B000294A9047FEE7884207D0521A05D0037852
:1062C00001300B700131013AF9D17047884202D098
:1062D00002700130FAE770470000012000E0002062
:1062E0000000012000000120D4D50200D82A00209F
:1062F000402B0020D0630200D06302002CC60200B5
:10630000D4D50200D82A0020D82A002030C70200A5
:1063100030C7020030C7020030C7020030C7020099
:1063200030C7020030C7020030C70200D4D50200D7
:106330003CD60200402B0020402B0020402B0020A8
:106340005C3E00205C3E00205C3E00205C3E002065
:106350005C5E00209D6302003D9E0200FEE7FEE7BA
:10636000FEE7FEE7FEE7FEE7FEE7FEE7FEE7FEE705
:1063700000F002B8FFF7FCBF0F484FF00701884359
:1063800085460E4880470E48016841F4700101605F
:10639000BFF34F8FBFF36F8FFFF732BF09480A4932
:1063A0000A4A884207D0521A05D0037801300B7090
:1063B0000131013AF9D17047000001201182020039
:1063C00088ED00E030C70200D82A0020D82A00203B
:1063D0007047000007B5044B0093044A402300F0C7
:1063E00032F803B05DF804FBF1630200412B00209A
:1063F0002DE9F84389461446B2B10F4B0F4E0325E1
:10640000002743F00108224609EB0701002003F0B2
:1064100003FF0744241A48B933782BB14FF47A406C
:10642000C047013D02D13570BDE8F88301233370C8
:10643000002CE8D1F8E700BF30C70200402B002055
:10644000704703F01DBFF0B595B01C4616460846D0
:106450000D4601F0F0FD1A9B0D93CDE90864002470
:106460002346082205A928460A948DF82C400C944E
:1064700001F0FEFD079B0293069B03939DF81430E9
:106480008DF8114003F00302012A1DD1BDF814401C
:10649000059EC3F3C203C4F383148DF81030A20029
:1064A00008230EA9284601F0E3FDC6F3952608ABA4
:1064B0000093224602AB0EA9304600F05DFB284651
:1064C00001F0BDFD15B0F0BD022AF8D1BDF81640AF
:1064D000C3F3C203A4098DF810300827082C264600
:1064E00028BF08263B4632460EA9284601F0C0FDCB
:1064F000A41B08AB02AA31460EA8374400F0A0FB4B
:10650000002CEBD1DBE7000008B5FFF79AFF042170
:10651000034800F09FFA034B01225A7108BD00BFE7
:1065200020C70200D82A0020037813F0040216D0F6
:1065300003F00303012B03D0022B09D00120704785
:106540000A6800880232C0F3831002440A60F5E74B
:106550000B684288023303EB92130B60EEE71046A0
:10656000704700002DE9F04F87B000230446851CDA
:106570000DF107000F4690468DF8073001F05AF8EC
:10658000454806683E60D0E90132134401339B1B45
:10659000824600F21C4600F5836900F21447AB42C4
:1065A0001BD30022B8F1000F70D0052363F307025C
:1065B00064F38912DAF80010DAF808309DF8070061
:1065C0000B4003330D444AF82320CAF8005001F071
:1065D00055F8012007B0BDE8F08F0121304601F0E9
:1065E0006EFA484601F081FA384601F07EFADAF890
:1065F0000400DAF808B0029000EA0B0003300AEB5E
:10660000800002A9FFF790FF029B50BB0BEA030238
:106610000AEB820203F1020CD2680392013303EA0F
:106620000B0B0AEB8B0B02F00302012ACDF808C01A
:10663000DBF80C1022D0022A16D08346384601F02F
:1066400057FA10B1029BCAF804305946304601F09F
:1066500036FADAE901231344DAF8002001339B1AF1
:106660009DE70BEA0300C9E7BDF80E309B09033331
:106670004FEA114B0CEB93030293DFE7BDF80C30AC
:10668000C3F383134FEA114B6344F5E7062363F327
:10669000070264F39F528DE7542C00200B4B0C48EB
:1066A000FF2210B59A600022C3F81824C3E9002223
:1066B000C3F8142483F8202401F076FC044610B9B2
:1066C000044801F0F5FC204610BD00BF542C00200A
:1066D0008CC6020054C7020030B50A4C71B10A4A98
:1066E0000A49121BD20800239A4201D1002030BD72
:1066F00031F82350854202D00133F5E7034654F8C0
:106700003300F4E7A0C6020020C70200D82A002008
:10671000094B013903EBC000032909D8DFE801F078
:106720000A020406042070470079704740797047D8
:106730000020704702207047A0C60200034BD3E937
:106740000030C31A58425841704700BF542C0020F3
:106750002DE9F04387B0FFF7F1FF0646002840F02F
:10676000FB807E4DC5F81804BFF34F8F6868AC6896
:1067700002902040033005EB800002A9FFF7D4FE11
:10678000029B18B1D5F81824002A5FD004EA03024E
:10679000991C013305EB8202234005EB8303D26889
:1067A000DB68049302F00303022B0392029162D18F
:1067B000BDF80E306A484FEA9318B8F1500FC14641
:1067C00028BF4FF0500969F38F1309F10801ADF8A4
:1067D0000E3001F001FC0746002800F0A88001F00F
:1067E0002AFC03A900230822384601F037FC02994D
:1067F00024EA01060136B600B14535D95FFA89F9B8
:106800007EB3F6B2A9EB0609214003315FFA89F4A1
:10681000B146544E05EB810108234A46384601F043
:106820001DFC36B109F1080322463146384601F015
:1068300015FC029B08F1030803EB98030293D5F8BB
:106840001834002B4BD1D5F810445BE02A689A42EB
:1068500004D86A60304607B0BDE8F08304EA03005C
:1068600088E740493446D7E72140033108234A46A8
:1068700005EB8101DAE7012B59D1BDF80C3038481E
:10688000C3F38311062928BF062161F3891302315E
:106890008900ADF80C3001F09FFB0746002846D078
:1068A00001F0C9FB0023082203A9384601F0D6FBFA
:1068B0000026BDF80C20C2F38312B300964203F108
:1068C0000803BCD202994A1C21400331029205EB15
:1068D00081010422384601F0C1FB0136E9E7384660
:1068E00001F0ADFBFFF72AFF80F00100C6B2B1E76F
:1068F000E3685B7923B1236839461B6820469847D3
:10690000E3681C68002CF3D1384601F098FB0DF1C8
:1069100007008DF8074000F08DFED5F818340BB94C
:10692000029B6B609DF8070000F0A8FEDAE7D5F83F
:10693000104454B90C4B0D480D49C01AC00800044E
:1069400040F0020000F06EF8CCE7236820469B6818
:106950009847E3681C68ECE700267BE7542C00208E
:106960008CC60200602C0020A0C60200C8C602002F
:1069700060C702002DE9F74F284C80460F4692462B
:1069800001A9012218469B46D4F80890FFF7EAFDBA
:1069900080B3019D0026A91C5E4506EB010233D1A0
:1069A00000211F4801F060F880F310006A1C02EA21
:1069B000090204EB8202000405EA0903033340EAFA
:1069C0001840D06014F8232068F3C50204F823208F
:1069D00034F8232066F3891224F8232054F8232066
:1069E00067F39F2244F8232002F0F80242F00102EC
:1069F00004F8232094F820341BB1FFF7A9FE0028E7
:106A0000FBD103B0BDE8F08F09EA020204EB820279
:106A10005AF82630D3600136BEE700BF542C002060
:106A20007030002000231A46FFF7A4BF07B50123EA
:106A3000019201AAFFF79EFF03B05DF804FB07B5C2
:106A4000CDE9002302236A46FFF794FF03B05DF807
:106A500004FB000030B50F49D1F810240023144680
:106A60003CB9C468237152B9C1F8100422601846B9
:106A700030BDE46825799D4206D02468F0E7D268ED
:106A8000116821601060F2E701330A2BE7D14FF063
:106A9000FF33ECE7542C0020094A38B50123D2F823
:106AA000104482F820341D4604B938BDE3685D7196
:106AB000236820465B689847E3681C68F4E700BFDA
:106AC000542C0020037A052B10B50C460FD0437AC6
:106AD00023B1084A0849204601F06DF807492046CD
:106AE00001F069F82046BDE8104001F059B8002ACD
:106AF000F8D0F3E7ABC70200B0C70200CACE02006D
:106B0000C38873B504460D4633B1144A0092144944
:106B1000144A284601F04FF8217A05291CD0637ADF
:106B20004BB1A088FFF7F4FD0F4B104953F820201C
:106B3000284601F040F8227A0D4BA08853F82260D5
:106B40000021FFF7C9FD0B4903463246284602B033
:106B5000BDE8704001F02FB802B070BDABC70200B5
:106B6000BBC70200B3C7020078C70200B0C702006B
:106B7000E0C70200D3C702002DE9F04385B01F46ED
:106B80000C9D002306460C46904695F80C902B73FE
:106B900029463846FFF7B4FFB8F1060F09D8DFE8F9
:106BA00008F00412181F283340003146284601F02F
:106BB00002F8002229463846FFF784FF85F80C903A
:106BC00005B0BDE8F08322683146284600F0F3FFA7
:106BD000EFE7D4E900233146284600F0ECFFE8E770
:106BE000A36800933146D4E90023284600F0E3FF70
:106BF000DFE7E3680193A36800933146D4E90023FB
:106C0000284600F0D8FFD4E723690293E368019394
:106C1000A36800933146D4E90023284600F0CBFF57
:106C2000C7E76369039323690293E3680193A36849
:106C300000933146D4E90023284600F0BCFFB8E7B2
:106C400008292DE9F84F80460E4617461C463AD8CB
:106C5000002593F80C901D7319461046FFF750FF5E
:106C6000DFF884A0DFF884B0AE422ED918F80520F2
:106C70005946204600F09FFF0135082DF4D11849F0
:106C8000DFF86CB0204600F096FF4FF0000A564542
:106C900020D918F80A507E2D03D8284605F03CF874
:106CA00000B92E252A465946204600F084FF0AF1F5
:106CB000010ABAF1080FEAD1012221463846FFF74E
:106CC00001FF84F80C90BDE8F88F5146204600F093
:106CD00072FFD1E70349204600F06DFFE7E700BFF0
:106CE000A6C70200A4C70200A2C702009CC70200F8
:106CF000A8C70200C30710B507D4F0234008054A0F
:106D0000145C23401943115410BD0901C9B20F236B
:106D1000F4E700BF4031002030B5094B1C78094B27
:106D2000196800239C4202DC0022104630BD11F895
:106D30003350854201EBC302F7D00133F2E700BFC5
:106D4000103100205031002070B504460D46FFF789
:106D5000E3FF30B1436823B129462046BDE87040C7
:106D6000184770BD034B044819680022490800F019
:106D700064BA00BF143100201831002010B5C0B231
:106D8000FFF7CAFF0446007801F088FE63785A1EB8
:106D900053425341834208D1044BD3E900231343A8
:106DA00003D1BDE81040FFF7DDBF10BD3831002032
:106DB00037B54308364AD35CC2074CBF1B0903F002
:106DC0000F0304460D46042B36D8DFE803F00326F4
:106DD0002D393D0081B30121FFF78CFF00230DF118
:106DE00007008DF8073000F025FC0122A4F12003F4
:106DF000C4F12000274902FA03F322FA00F003430A
:106E000002FA04F4D1E9002014430343C1E900432A
:106E10009DF8070000F032FC0EE0002918BF0221A7
:106E20002046FFF767FF07E041B10321FFF762FF4C
:106E300001212046FFF788FF03B030BD0121EFE7B5
:106E40000029F9D10421EBE709B10321E8E7FFF7B5
:106E500051FF29462046FFF777FF0DF107008DF817
:106E6000075000F0E7FB0122A4F12003C4F1200049
:106E7000084902FA03F322FA00F0034302FA04F489
:106E8000D1E9002022EA040420EA0303BEE700BFA0
:106E900040310020383100202DE9F041124E134FCF
:106EA00000243378A34208DC114BD3E900231343B9
:106EB00018D0BDE8F041FFF755BF3D6805EBC408A9
:106EC00015F8340001F0EAFD98F801104B1E594204
:106ED00059410A1A514215F834005141FFF768FF31
:106EE0000134DEE7BDE8F081103100205031002090
:106EF00038310020092AF7B505460C4616463DD91B
:106F000001F00AFDD8B11E4B1E481D601E4B1F4FDD
:106F10001C701F4B002110221E6004F05DFF1D4BF2
:106F200000200021C3E90001013CE4B20326FF2C4C
:106F30000BD1194A1948002100F074F903E001F05F
:106F4000B3FC0028DFD003B0F0BD20B29DF80630BE
:106F50008DF8046005EBC00223F007038DF80630BE
:106F600001A9937815F830008DF805303A4601F004
:106F7000DDFC013CE4B20028D9D0E4E70720E2E7D9
:106F80005031002040310020103100207D6D020082
:106F90001431002038310020996E020040C80200F0
:106FA00070B5084D084E00242B789C4201D3002078
:106FB00070BD3368012113F8340001F02BFD01345A
:106FC000F2E700BF10310020503100201FB5002132
:106FD000039001AA44F20100CDE9011100F004F888
:106FE00005B05DF804FB000010B572B6FFF754FD64
:106FF000FFF7AEFB0028FBD1104B114C1149E41AEE
:10700000E408240444F00100FFF70CFD0E4B1B685C
:10701000DB0700D500BE0D4944F00200FFF702FD7A
:10702000BFF34F8F0A490B4BCA6802F4E062134367
:10703000CB60BFF34F8F00BFFDE700BFA0C60200CB
:10704000C8C602004FC80200F0ED00E05BC80200B5
:1070500000ED00E00400FA0549B152B1531E1A4098
:1070600007D1826001608380C260104670470E20A5
:1070700070470920704710B58468C2688388121B66
:10708000934208D3C26813400268D154C3680133E5
:10709000C360002010BD0420FCE78268C3689A42E8
:1070A0000AD08268838813400268D35C0B708368BF
:1070B000013383600020704705207047D0E9022328
:1070C000D1E90201994208BF90422CBF0120002063
:1070D000704700002DE900480C4800F002FC0C4B02
:1070E000D3E9002312EB000B43F1000C094BD3E969
:1070F00000239C4508BF93455846614603D21BF1C7
:1071000080704CF10001BDE8008800BFE02A00203B
:1071100058310020D031002037B505460C460A48CA
:1071200001A900F010FC60B10570446001A9064897
:1071300000F033FC18B1054800F0D8FB002003B084
:1071400030BD0420FBE700BFBC310020E02A002056
:10715000194B1B782DE9304804461BB900252846F9
:10716000BDE830880028F9D0037F03F0FF05002B2D
:10717000F4D0FFF7AFFFD4E90223994208BF904251
:1071800015D3236903B92377D4E9053098472169DA
:107190000029E3D0237F03F0FF05002BDED0D4E9E4
:1071A000022312EB010B43F1000CC4E902BC21469F
:1071B000024800F09CFFD2E7603100206CC802005A
:1071C00013B5114B11491868019008235822104833
:1071D00000F0A6FB044698B90E4A0F4801A900F03A
:1071E00071FA044660B901210B4800F05DFB0123F0
:1071F0000A4A0948194600F0C3FA094B01221A70DD
:10720000204602B010BD00BF68C8020064310020F3
:10721000BC31002085720200E02A0020FFFF7F00C1
:10722000603100203AB103685A614A1E514251410F
:107230001961002070470720704738B5037F044666
:107240000D4683B98261FFF745FF421941F1000302
:10725000C4E90223236903B1256121460020BDE86A
:107260003840FFF759BF002038BD0023014603779F
:107270000120FFF751BF0000014800F032BB00BF02
:10728000E02A00202DE9F04F85B0074600F014FBFE
:1072900040B1594AD2E9003113F1807341F1000144
:1072A000C2E900310021384600F015FB38B1534CDB
:1072B000236823B12068FFF74BFF002323600121DF
:1072C000384600F008FB20B1FFF704FF4C4BC3E940
:1072D000000103A94B48494D4B4C4C4E00F06DFB4F
:1072E000002845D1DFF820A1444CDFF828B15046F2
:1072F00000F013FF2368002875D07BB12368D0E924
:107300000201D3E90223994208BF90422DD223689B
:107310001B7F1BB12168504600F0E9FE504600F08B
:10732000F6FED0E9026305460193FFF7D3FE019B09
:10733000B6EB000863EB0109B8F1010F79F1000326
:1073400044DB334EB0453FD9FFF796FF82194FF427
:1073500096030021584600F033FA00283ED12368F6
:1073600013B9384600F004FA256005B0BDE8F08F87
:107370000378012B1DD05BB1022B11D14FF0000A15
:10738000204600F0C4FE002833D080F81CA0F7E7A8
:1073900041680B7F23B901230B77204600F0A7FE3D
:1073A00003A9184800F034FB03A9164800F005FBB8
:1073B00096E741682B68994202D100232B60EFE7E2
:1073C000204600F0ADFEEBE7AA68C0E70021584672
:1073D00000F077FA2846FFF7BBFE01E00D28F9D050
:1073E0000023236083E7002BBFD1384600F0C4F9A7
:1073F000BBE701233370D3E758310020D831002098
:10740000D0310020BC3100206CC802006031002067
:10741000FFFFB400E02A00200648074A0378074926
:10742000D35C012213B1043002F064B80C3001F0D7
:1074300027BE00BFE82A00204C3200200432002082
:107440000648074A03780749D35C012213B1043088
:1074500001F0FCBF0C3001F0BDBD00BFE82A0020E8
:107460004C3200200532002037B50578012D05D0BB
:10747000002D32D0022D25D003B030BD037A13B9D0
:10748000FFF7CAFFF8E743681A4C19782046FFF760
:10749000F2FD80B18DF800500190174B68461B68D3
:1074A0009847A168E368A2885B1A9A42E8D2134B16
:1074B00001221A70E0E7A268E3689A42F1D08DF8E1
:1074C0000000EAE7C3688DF800500193FFF7A4FFBE
:1074D000094B68461B689847CEE709490948FFF7FA
:1074E000DCFD10B9FFF7ACFFC6E703238DF80030D1
:1074F000EEE700BFE0310020DC310020F031002059
:1075000005320020F4310020F0B51F46234B89B02E
:1075100006461A600C4600293DD08A882048096832
:10752000FFF79AFD002834D1A289A1681D48FFF712
:1075300093FD00282DD11C4D0FCD6C460FC495E84E
:107540000F0084E80F0073690693337C174A1848CC
:107550008DF81C70003318BF01238DF81430737C34
:10756000002B14BF0E2300238DF81530F36802930F
:10757000B36803933368019369467368009301F01D
:10758000D1F830B90B4B18703368013301D0FFF7D5
:1075900043FF09B0F0BD0720FBE700BFDC3100204E
:1075A000E0310020F431002084C802006974020038
:1075B000E82A0020F031002070B5084C0146084848
:1075C0002678FFF76AFD054636B100232370FFF7E2
:1075D00023FF08B1FFF7FAFC284670BDF031002008
:1075E000E031002010B501460E48FFF744FD044687
:1075F000A8B90D480D4A0378D35C63B1043001F09B
:107600006DFF60B90A490748FFF747FD38B9BDE883
:107610001040FFF715BF0C3001F026FDF1E72046C2
:1076200010BD00BFF4310020E82A00204C320020B9
:107630000532002070B5EFF3108672B60C4A9468DC
:1076400001239CB993600B4B0B4DD3F8801029405C
:107650001160C3F88050D3F8841051604FF0FF32AE
:10766000C3F88420047006B962B670BD0370FAE7EF
:107670000832002000E100E0FC06FFBD084B9A68DC
:1076800010B55AB150B9EFF3108172B6054A1C68B3
:1076900014605C685460986001B962B610BD00BFA8
:1076A0000832002000E100E0435882B03BB10023E3
:1076B000435043580193019B012002B07047184684
:1076C000FBE70000F8B5224B4679224D43F826200F
:1076D000214A224BF7009B1AEA19DB0812791B0496
:1076E00032B143F002001E49FFF79CF90820F8BDB3
:1076F00002680C88C2F8084590F904208978002AAD
:10770000A8BF02F1604CD4B2BABF04F00F0EDFF88C
:1077100058C00CF5614C4FEA4111C9B2B4BF0CF826
:107720000E108CF8001352090121DFF840C004F05C
:107730001F042F4401FA04F44CF82240397145F833
:107740003600084943F00300FFF76CF90020CEE74C
:107750001C32002014320020A0C60200D8C602004D
:10776000B6C80200D8C8020014ED00E000E100E055
:10777000036801221A607047036801225A6070474B
:1077800073B501F15005AD000068ADB24FF480341F
:107790008C400026C0F80843C0F84843465101F524
:1077A000A8714559019522F07F42019D40F82120A2
:1077B000C0F844430BB1C0F8044302B070BD0000F0
:1077C0002DE9F74F884699464FF48036036808F153
:1077D00050058E404FEA880AAD00C3F84863ADB249
:1077E000C3F80863074603EB0A00D3F804154FF00B
:1077F000000B22F07F44D0F84025C0F8401543F834
:1078000005B05B590093009B531A23F07F43012B73
:107810000BD1244B4FF4806043F0010398473B6841
:1078200043F805B05B590193019B3868D0F80455C3
:10783000C0F84463631B23F07F43012B1AD108F582
:10784000A878184B013440F8284043F001034FF466
:10785000806098473B68D3F804359D4208D13B6867
:107860000020C3F84463C3F8046303B0BDE8F08F9D
:107870000D20FAE78244C9F1FF19CAF84045D0F853
:107880000435E21A013A22F07F4209F57F49914519
:10789000EED3002AE3D10134CAF84045D0F80425DC
:1078A0009342DBE7B0C8020003680222C3F8442316
:1078B00009B1C3F8042370474FF482710068FFF7E1
:1078C000F3BE4FF4803303FA01F10368C3F84813A1
:1078D000C3F8081370475031890089B20068FFF778
:1078E000E3BE0368D3F804057047000090F9043044
:1078F00001215A0903F01F0301FA03F34032024940
:1079000041F82230704700BF00E100E0024B034A1B
:107910001B681068184700BF1C320020143200207A
:1079200010B561B1B2FBF3F403FB1424A4B244B963
:10793000C0E9001484608281C381204610BD0E20FE
:10794000FCE70920FAE737B550E8013F9DB2C4894A
:1079500025448489A54228BF2D1B0489A54202BF66
:10796000BFF32F8F002207E0C5EA030540E801546A
:10797000002CE9D14FF001028DF803200193019B07
:107980009DF803200B6002F0FF0322B10B88006812
:10799000184403B030BD1846FBE70A884B889A426A
:1079A00009D150E8012FC2EA024240E80123002B2E
:1079B000F7D1012070470020704737B550E8023FEB
:1079C0001FFAA3F5C488A54202BFBFF32F8F002280
:1079D0000DE0C48925448489A54228BF2D1BC3EA34
:1079E000054540E80254002CE8D14FF001028DF823
:1079F00003200193019B9DF803200B6002F0FF031D
:107A000022B14B880068184403B030BD1846FBE72C
:107A10000A884B889A4209D150E8022FC2EA2242D2
:107A200040E80223002BF7D1012070470020704767
:107A300001F01F024B090121914000EB830000F08F
:107A40001DB801F01F0301229A404B0900EB83008F
:107A5000D14300F029B84B0901F01F0150F8230071
:107A6000C84000F00100704750E8002F0B4640E886
:107A7000003C9CF0000FF7D11046704750E8003FE3
:107A800043EA010240E8002C9CF0000FF6D11046BA
:107A9000704750E8002F02EA010340E8003C9CF0E8
:107AA000000FF6D11046704750E8003F03EA01028C
:107AB00040E8002C9CF0000FF6D11046704750E8CB
:107AC000003F03EB010240E8002C9CF0000FF6D1D0
:107AD0001046704750E8003FA3EB010240E8002C3D
:107AE0009CF0000FF6D1104670470121FFF7C6BF8A
:107AF0000021FFF7CEBF10B590B1D0E90123016896
:107B00009B1ADBB20A60013BDBB2FF2B026802D199
:107B10000020107110BD11684C1C14600B70F2E74E
:107B20000E20F7E737B5054600240DF107008DF864
:107B30000740FFF77FFD2A686B68116899420ED9EC
:107B4000481E106011F8014CEB68298A01FB0434CF
:107B5000AB6811791B1ADBB2994238BF13719DF8DB
:107B60000700FFF78BFD204603B030BD37B5054653
:107B700000230DF107000C468DF80730FFF75AFD82
:107B80002A681368591C1160E968641A298AB4FBD1
:107B9000F1F41C709DF80700FFF770FD03B030BDD5
:107BA000826810B504462AB14369016800699847A4
:107BB0000023A36010BD0EB403B5039921B104AB3B
:107BC00001AA019300F074F802B05DF804EB03B071
:107BD00070470A2938B504460D4602D10D21FFF73A
:107BE000F8FFA3682268591CA160D554D4E901327A
:107BF0009A4204D32046BDE83840FFF7D1BF38BDD4
:107C00002DE9F84F9946DDE90A4317468246884632
:107C10000A460126BA420FD24E4538BF4E4613F0EF
:107C2000010B01D164B900240125B9F1010F1AD962
:107C300009F1FF397D43F8E7B2FBF7F20136E9E7D6
:107C40009B070ED5B9F1000F0CBF30252025A642A9
:107C5000EAD2013C29465046FFF7BBFF002CF6D183
:107C6000E1E72025F3E7B8FBF5F39F42E2D9DFF81F
:107C70003C90B8FBF5F3504619F8031005FB138848
:107C8000FFF7A7FFB5FBF7F3BD4207D2BBF1000F2B
:107C900002D00CB1A64203D3BDE8F88F1D46E8E739
:107CA00020215046013CFFF794FFF2E7EAC80200AA
:107CB0002DE9F74F054617468846002900F0308128
:107CC00018F8011B49B92B7B002B00F029812846AD
:107CD00003B0BDE8F04FFFF763BF252940F0C08037
:107CE000002698F800302D2B424608F1010823D0D9
:107CF000302B24D02B2B25D000242A2B02F101017C
:107D000023D13B681A1D1B683A601C440A4613784D
:107D10002E2B26D101324FF00009104610F8011B1E
:107D2000A1F1300CBCF1090F1DD80A2303FB091384
:107D3000A3F130090246F0E746F00106D1E746F02C
:107D40000206CEE746F00406CBE711F8013CA3F1AA
:107D500030000928DBD80A2202FB0434303C0A46F2
:107D6000CBE74FF0000912F8011B01F0FB00682877
:107D70009046F8D069290ED04AD8582964D006D840
:107D800025296DD098F80030002B99D19BE7632905
:107D900062D06429F6D13A68D2F800A0111D8AEAAF
:107DA000EA723960A2EBEA724FF0010B092A5BDC40
:107DB000CB4538BFCB462CB1BAF1000F01DB7207BF
:107DC00000D5013CB30702D5B9F1000F04D0F0078C
:107DD00002D4002C4ED10024BAF1000F52DACAF1BD
:107DE000000A2D212846FFF7F4FE06F00302022ABE
:107DF00005D1B9F1000F02D1002C47D10024CDE903
:107E000000464B460A2251462846FFF7F9FEB9E7DD
:107E100073294CD014D87029B4D13B681A1D3A602C
:107E2000302128461C68FFF7D4FE78212846FFF74A
:107E3000D0FE00220823CDE9003221461022E3E7DC
:107E400075292BD078299DD139680A1D3A60CDE972
:107E500000464B46102228E03B681A1D19783A600C
:107E60002846FFF7B6FE8DE70A230BF1010BB2FBA4
:107E7000F3F29BE7A345AFD220212846013CFFF750
:107E8000A8FEA6E77107B0D52B21ABE7A345B6D274
:107E900030212846013CFFF79CFEADE73968CDE96B
:107EA00000460A1D3A604B460A220968ACE73B6867
:107EB0001A1D3A6016F00106D3F800A020D1BAF1DD
:107EC000000F03D0504603F0DCFF0646B44200D951
:107ED000C4B90AF1FF3A1EE028460136FFF779FEE1
:107EE0001AF806100029F7D1A642BFF44BAF002CB8
:107EF0003FF448AF20212846013CFFF76AFEF3E734
:107F00000026EDE720212846013CFFF762FEDDE771
:107F10002846FFF75EFE1AF8011F0029F8D131E765
:107F200003B0BDE8F08F2DE9F047B0F80690447932
:107F3000D2F800A09DF8208009FB04F4043C06461A
:107F40000AEB0300A0420F4688BFA4EB030A191DE9
:107F5000C2F800A0B1FBF9F509FB15114DB9A9EB69
:107F60000104544528BF5446BAF1000F04D1BDE8BE
:107F7000F0873668013DF1E704317B19701822461D
:107F8000B8F1000F0ED001461846AAEB040A03F020
:107F9000FAFED145254436684C464FF0000128BF13
:107FA0005446E1E71946F0E7FFF7A5BDF8B5467975
:107FB0000146721E0546002393422D6803D3002418
:107FC000A64202D8F8BD0133F6E70F682846FFF74E
:107FD000CDFD01343946F3E72DE9F843068ACD1C7F
:107FE0000746FFF79FFD043E35440446B5FBF6F512
:107FF000F0B14FF48073EDB28380C680013D07601D
:1080000081464FF00008A84512D23846FFF78AFD96
:10801000064648B163790133637108F10108C9F874
:10802000000007608146EEE72046FFF7BFFF3446B9
:108030002046BDE8F88301210430FFF740BD10B5AC
:10804000012104460430FFF745FD10F0FF0F04D175
:108050002046BDE81040FFF7A9BF10BD1FB5039231
:108060000022009203AAFFF75EFF05B05DF804FB53
:108070001FB503920122009203AAFFF754FF05B037
:108080005DF804FB064B10B500241C70054B1C600A
:10809000BFF35F8F0449054800F013F8204610BD78
:1080A000283200202C320020FCC8020020320020A0
:1080B000836800225A609A60C3E90422DA601A6079
:1080C00070470B684A684360934208BF0023016011
:1080D00008BF43607047436843B1026891685268C3
:1080E0000B449342436004BF00234360704770B564
:1080F000446806460D46206818B1B368294698477B
:1081000018B923682B60256070BD2468F3E74368C5
:10811000186808B102681A607047436818687047A9
:108120004368186800B97047884203D102681A6032
:108130000120704703460068F4E7000010B50D49C0
:10814000A1F59472914201D800200FE08B1ADB1048
:1081500003EBD3735B1002EBC30452F8333083425A
:1081600005D802D204F10802ECE7606810BD214690
:10817000E8E700BF58CA020008B5FFF7DFFF024B6F
:10818000002808BF184608BD1AC9020010B50446E9
:10819000C0B2FFF727FA204610BD00000C4B1B7839
:1081A000062B10D10B4B1B681A070CD10A4B186811
:1081B00000F0F003302B08D000F0E000A0F1400305
:1081C000584258417047002070470120704700BF57
:1081D000E00F00F0E40F00F0E80F00F0094B1B780F
:1081E000062B0CD1084B1B681A0708D1074B1868DF
:1081F00000F0F000A0F130035842584170470020D1
:10820000704700BFE00F00F0E40F00F0E80F00F04F
:1082100008B5FFF7C3FF28B17D4B7E4A1B68C3F347
:1082200004231360FFF7DAFF10B17B4B7B4A1A601F
:10823000FFF7B4FF28B17A4B7A4A1B68C3F3423385
:108240001360FFF7CBFF20B1774AD36823F0807328
:10825000D360FFF7A3FF40B14FF080430022C3F883
:108260000C21C3F81021C3F83825FFF7B7FF10B170
:108270006E4B03221A60FFF7B1FF40B16C4B052231
:108280001A6001229A6700229A603F225A60694B65
:108290001B78062B50D1684B1B6819074CD1674BD4
:1082A0001B6803F0F003502B46D14FF08052644B13
:1082B000D2F80414C3F82015D2F80814C3F8241512
:1082C000D2F80C14C3F82815D2F81014C3F82C15E2
:1082D000D2F81414C3F83015D2F81814C3F83415B2
:1082E000D2F81C14C3F84015D2F82014C3F8441572
:1082F000D2F82414C3F84815D2F82814C3F84C1542
:10830000D2F82C14C3F85015D2F83014C3F8541511
:10831000D2F83414C3F86015D2F83814C3F86415D1
:10832000D2F83C14C3F86815D2F84014C3F86C15A1
:10833000D2F84424C3F87025FFF730FF28B1414B31
:10834000414A1B6803F04F031360FFF727FF48B152
:108350004FF08043D3F80024D20744BF6FF00102EE
:10836000C3F80024394B1B68062B08D1384B1B6817
:10837000062B01BF374A136843F480631360364A03
:10838000D2F8883043F47003C2F88830BFF34F8FBF
:10839000BFF36F8F4FF01023D3F80022002A03DBC6
:1083A000D3F80432002B2FDA2C4B0122C3F804251A
:1083B000D3F80024002AFBD04FF010221521C2F878
:1083C0000012D3F80024002AFBD04FF0102315220E
:1083D000C3F80422214B1A46D3F800140029FBD01D
:1083E0000021C3F80415D2F80034002BFBD0BFF3F2
:1083F0004F8F19491A4BCA6802F4E0621343CB60ED
:10840000BFF34F8F00BFFDE7164B174A1A6008BD38
:10841000240300104035014074C007400DF0ADBA90
:10842000440200103C050040F0ED00E0A0050040D3
:1084300010560040E00F00F0E40F00F0E80F00F0ED
:1084400000C0004058020010E40E0040300100104F
:10845000340100103C17004000ED00E000E0014056
:108460000400FA05FC2A00200090D003054A4FF0D2
:10847000A043105CD3F8043523FA00F0C04300F0A9
:108480000100704716CE0200044B1A5C0123934092
:108490004FF0A042C2F80C35704700BF16CE020064
:1084A000044B1A5C012393404FF0A042C2F80835F8
:1084B000704700BF16CE020008B50020FFF7F0FF9E
:1084C0000120FFF7EDFF0220FFF7EAFF0320BDE8E0
:1084D0000840FFF7E5BF08B50020FFF7D5FF0120F2
:1084E000FFF7D2FF0220FFF7CFFF0320BDE80840CF
:1084F000FFF7CABF074A4FF0A041105CD1F804351E
:108500000122824022EA03001340C1F80805C1F8A5
:108510000C35704716CE0200054A4FF0A043105CA0
:10852000D3F8103523FA00F0C04300F00100704783
:1085300012CE02000D2809D00E2809D00F2809D02C
:1085400010280CBF03204FF0FF3070470020704709
:108550000120704702207047014B185C704700BF34
:1085600012CE0200C20708B501460CD54FF0A04359
:108570000322C3F84427C3F84827C3F84C27C3F89D
:108580005027FFF799FF8B070AD54FF0A0430C2225
:10859000C3F83427C3F83827C3F83C27C3F840276B
:1085A00008BD000038B5074C051E04F1080318BFCC
:1085B0001C4623682BB11A6822605B6828469847DE
:1085C000F7E738BD3832002020B9054B01225A7038
:1085D000FFF7E8BF012802D1014A9070F8E7704721
:1085E0003032002020B9034B01225A70FFF7DABF66
:1085F000704700BF3032002038B50B4C237883B968
:108600000A486360A3602361E36000F0C7F8054691
:1086100003F002F908B900F0CDF8012323702846D1
:1086200038BD8525FBE700BF30320020C985020038
:1086300037B50B4C00230DF107008DF80730FEF71E
:10864000F9FFE368013BE360E56815B900F0C4F8A1
:10865000A5709DF80700FFF711F803B030BD00BF0B
:1086600030320020012813B509D018B103281CD0DE
:1086700002B010BD0F4B0122C3F88020F8E70E4C6A
:1086800000230DF107008DF80730FEF7D3FF2378A4
:108690000BB9FFF7B1FFE3689DF807000133E36012
:1086A0000123A370FEF7EAFFE2E700F083F8FFF78B
:1086B000BFFFDDE700E100E0303200201FB50378A6
:1086C0008DF800304368019383688DF80830C368E3
:1086D0000393054A054B684653F8213052F82110A0
:1086E000984705B05DF804FB443200204832002072
:1086F0001FB503788DF800304368019383688DF8C7
:108700000830C3680393054A054B684653F8213087
:1087100052F82110984705B05DF804FB4432002060
:1087200048320020F0B5184B077891F81DE043F867
:108730002720164B16460A6943F82720144B03F8E6
:1087400007E00C4684460FCC89B06D460FC594E80F
:108750000F0085E80F000497BEF1000F0AD0002E2D
:108760000C4A694608BF32460CF1040000F0A8FD2F
:1087700009B0F0BD002E084A694608BF32460CF128
:108780000C0000F06DFBF3E748320020443200207B
:108790004C320020BD860200F1860200044A1379A3
:1087A00023B90121106091801846704785207047D9
:1087B00050320020074B1A68D2075FBFC02283F8EF
:1087C000002301221A604FF080430122C3F81825CC
:1087D000704700BF00E100E0044B01221A604FF037
:1087E0008042D2F81834DB03FBD470470C00004001
:1087F000154B07B51A687AB100221A601B680093FE
:10880000009B4FF080430122C3F808230F4B587997
:1088100010B95A711B6898470D4B1A6882B1002233
:108820001A601B680193019B4FF080430222C3F83A
:108830000823064B1B68012003B05DF804EB1847C2
:1088400003B05DF804FB00BF00010040503200207F
:108850000401004000F1804000F5C040002382B0D8
:10886000036003680193019B02B07047800000F130
:10887000A040D0F8003723F44033C0F80037D0F8D8
:10888000003743EA0141C0F800177047054B4FF02D
:10889000FF32072843F8202084BF1B1883F84820A4
:1088A000704700BF5832002010B5174C94F858306C
:1088B00043BB04F130032021FF22013911F0FF01F5
:1088C00003F8012BF9D1C8B2FFF7E0FF01310C2901
:1088D000F9D1042200210D4803F07EFA0C4BC0228E
:1088E00083F8062340221A604FF4BE70FFF7B2FFF0
:1088F000084B4FF00042C3F80423012384F858309A
:10890000002010BD0820FCE758320020AC320020C7
:1089100000E100E000600040034B93F85800003095
:1089200018BF0120704700BF58320020F0B5374B08
:108930001C1894F93040002C1C4664DA8D78C5F37D
:108940004005002D0BBF082300230C260826B34248
:1089500001D10420F0BD54F8237001373FD126180F
:1089600044F8232086F8303015B9E21882F8480020
:108970008A78550713D4D60733D5820002F1A04276
:10898000D2F8005725F00205C2F80057204EC5085E
:1089900000F007070122BA40775D3A4372558A78A2
:1089A0000D7812F0020225D09B0003F1804303F5FD
:1089B000C0430202D3F8101521F4473121F440716D
:1089C000C3F810152D04D3F8101502F4F85205F46D
:1089D00040352A430A43C3F810250020BAE7013383
:1089E000B5E74D7800F5E0724FF0A046AD0046F8CF
:1089F0002250CBE7083B234493F8501041EA8515F9
:108A000083F85050E9E70820A4E700BF583200205F
:108A1000AC32002038B51F4C251895F93020072AB4
:108A200017DD224492F84810890903290CD14FF030
:108A3000A043D3F81035C34013F0010F08BF022143
:108A4000BDE83840FFF712BF012914BF03210221FE
:108A5000F6E7D3B2072B1CD8930003F1804303F54C
:108A6000C043D3F8100540F00100C3F8100502F12F
:108A70004000800080B2FFF7EDFE51B195F9303033
:108A800054F823302BB1012303FA02F2024BC3F84E
:108A9000042338BD58320020006000404FF0A0434E
:108AA000D3F8103523FA00F000F001007047000001
:108AB0002DE9F04F85B000245A4D01944FF4807297
:108AC000012102F1804303F5C04390B21B68012BE2
:108AD00006D1D5F804330B4202D0FFF7BBFE0C439E
:108AE0000432B2F5907F4FEA4101EAD14E4B1B6848
:108AF000012B0AD14FF4BE70FFF7ACFE4FF0A0433C
:108B000044F00044D3F81035019314F0FF0F1AD04D
:108B1000464F00250126344210D0AB0003F18043BC
:108B200003F5C043D3F81005D3F8101557F82530D6
:108B300023B1C1F30141C0F3042098470135082D4A
:108B40004FEA4606E7D1002C64DA00224FF0FF33EB
:108B5000CDE90223354D01274FF0000A344E54462B
:108B60004FF0A04816F9012B531C46D0D2B222F088
:108B7000C0094FEAD90104A8084402F0070310F81D
:108B800004CC07FA03F31CEA030F36D005EB090CFB
:108B900092099CF930C055F82CB0BBF1000F0AD1F6
:108BA000032A2AD10DF1080E1EF801C04CEA030C6D
:108BB0000EF801C001E0032AF4D009F5E07110F8C5
:108BC0000C0C58F821101842C1F3014105D00229BC
:108BD00013D1032A0BD1114604E003290DD1032A36
:108BE00005D102214846FFF741FE0134E4B2BBF152
:108BF000000F02D011464846D8470AF1010ABAF1DF
:108C0000040FAFD134B14FF0A043019AD3F810351F
:108C1000934202D105B0BDE8F08F0193029B03930C
:108C20009AE700BF006000407C610040583200209D
:108C3000A8320020014B1B68184700BFB432002047
:108C40000E4B984237B50D4602D0002003B030BD20
:108C500000230DF107008DF80730FEF7EBFC084B01
:108C60001C7914B901221D601A719DF80700FEF7E6
:108C700005FD002CE9D01120E8E700BF00200040EE
:108C8000B43200200023435082B043580193019B2B
:108C900002B070470A4610B54FF48E71FFF7F2FF2D
:108CA000136A9168C95C136A01331362C0F81C151A
:108CB00010BD024608B54FF492710068FFF7E2FF5D
:108CC0004FF484711068FFF7DDFF136801221A600A
:108CD00008BD8B690A4610B54FF4847123B9FFF7BC
:108CE000D1FFD0F8183510BDFFF7CCFF536AD1681B
:108CF000D0F81805C854536A01335362F3E70000F3
:108D00001FB501238DF80030044BCDE90110D3E9E4
:108D100000126846904705B05DF804FBBC320020A5
:108D200030B54D4AD2F8043313F4007F85B01546B0
:108D30004FD0D2F82431002B4BD04FF49271104613
:108D4000FFF7A0FF4FF40173C2F80833434B93F8C9
:108D5000291009B9012151603F4902228DF80020F4
:108D6000D1F88024C1F8802403929A690292DA68CB
:108D700001920022C3E906226846D3E90012904717
:108D80003548D0F81C315BB134494A690B6A9A42C4
:108D90000A464BD991F82830002B47D1FFF77AFFCC
:108DA0002D4AD2F8443193B14FF4A2711046FFF727
:108DB00069FF2A4B93F8291009B1012111609A69C2
:108DC0002AB100229A61586AD968FFF799FF05B065
:108DD00030BDD5F804335B07D2D5D5F80831002B68
:108DE000CED01E4C1C482146FFF773FF636AA26970
:108DF0009A422346C4D1E269E1684AB12369E3603B
:108E00000023606AA261E3616362FFF779FFB7E75D
:108E100094F829200AB901226A600F4A4FF40170C0
:108E2000C2F8080300229A61586AEEE74FF48E7187
:108E30000948FFF727FF5369002BB1D05169029110
:108E4000002391688DF80030019153616846D2E9A2
:108E500000139847A4E700BF00200040BC32002068
:108E60002DE9F843564F047991462C2202FB0472F7
:108E7000064692F82A200D46002A40F09A80514971
:108E80000068FFF7DDFE8046002840F095802968E5
:108E90003368481C0BD04FF0A04001228A40C0F834
:108EA000082501F5E0724FF0030C40F822C0686815
:108EB000421C1FBF00F5E0724FF0A04C4FF0000EB7
:108EC0004CF822E0AA6995F814C0C3F824256A7DFD
:108ED000BCF1010F4CEA0202C3F86C25C3F814057B
:108EE000C3F80C151DD1AA68511C1FBF02F5E07113
:108EF0004FF0A0404FF0000C40F821C0E968481C3A
:108F00000BD04FF0A04C01208840CCF8080501F5AB
:108F1000E0704FF0030E4CF820E0C3F80815C3F8DA
:108F200010252C236343FA18C2F804902A69FA50DA
:108F3000B9F1000F2AD04FF48E7130682D7FFFF702
:108F4000A1FE30684FF4A271FFF79CFE32681E4B01
:108F5000C2F80433120B51B20029A8BF01F16040DE
:108F60004FEA4513BABF194802F00F0500F56140FA
:108F7000DBB2B4BF435580F8003302F01F02012377
:108F800003FA02F24909124B43F821203368042204
:108F9000C3F800252C2303FB04730022C3E9062237
:108FA00083F829205A61012283F82A204046BDE82F
:108FB000F8834FF00808F9E74FF01108F6E700BF13
:108FC000BC320020218D02008000020014ED00E080
:108FD00000E100E02DE9F84F224F06794FF02C090F
:108FE00009FB067480466569002D38D16261A16075
:108FF00025624FF48E71006884F82850FFF742FE16
:10900000D8F80000012383602146FFF743FE636820
:10901000A1469BB9D8F800A0D4F814B0236A9B45A8
:1090200012D8D8F80020D2F81C31002BFBD0012335
:10903000D3602C2303FB067300225A612846BDE847
:10904000F88F94F8283043B9DAF81C31002BF8D0A7
:1090500049465046FFF71EFEE0E70F25E9E71125D8
:10906000ECE700BFBC3200200379044A2C2101FB4D
:1090700003235869003018BF01207047BC3200201C
:109080002DE9F843394E05792C2303FB0563074688
:109090005C6824B103684FF40170C3F808032C2303
:1090A00003FB0563986950B1D86900283ED024B10C
:1090B0003B684FF40172C3F80423112433E09A6132
:1090C000D9605862D8612C2303FB056393F82930DB
:1090D0001BB910B93846FFF7ECFD4FF02C0909FB1E
:1090E00005683868D8F80430002B34D14FF4A271E9
:1090F000FFF7C8FDC1463868D0F82431D0F8082100
:10910000D0F84441B2B90CB9002BF4D02C2202FBA8
:1091100005650022AA6123BB2CBB95F829103B688A
:109120000122B1B11A602046BDE8F8831961DA6105
:109130000120C8E7002BE9D1002CE7D14946FFF711
:10914000C8FDD8F82430D8F818209A42D3D823463E
:10915000DCE75A60E7E74FF40173C0F804330024FA
:10916000E1E70324DFE70F24DDE700BFBC32002086
:109170000023435082B043580193019B02B07047D3
:109180001FB501238DF80030044BCDE90110D3E960
:1091900000126846904705B05DF804FBE8320020F5
:1091A0007FB5454AD2F82461002E63D010464FF4B3
:1091B0009271FFF7DDFF02238DF80030D2F8803482
:1091C000C2F880340393D2F83C3502933B4BDA6803
:1091D00001920022C3E906226846D3E900129047B3
:1091E000354AD2F844317BB14FF4A2711046FFF7F3
:1091F000BFFF324B996939B10021C3E90611D96823
:10920000D2F83C05FFF7BCFF2B4AD2F82031B3B1AE
:109210004FF490711046FFF7ABFF0123D360274B4B
:10922000596961B1D2F84C150291002299688DF804
:10923000002001915A616846D3E9001290471E4A06
:10924000D2F85831A3B14FF4AC711046FFF790FF3C
:109250001A4B596961B1D2F84C15029100229968F4
:109260008DF8002001915A616846D3E900129047B9
:1092700004B070BDD2F81031002BB1D04FF488711A
:109280001046FFF775FF0D4BD2F83C0599698842EF
:10929000A6D1DC69D96864B1D2F8005225F0200566
:1092A000C2F800521A699C61DA60DE61FFF768FF5C
:1092B00096E79C61FAE700BF00200040E8320020FA
:1092C0002DE9F8435C4F06799146242202FB067291
:1092D000044692F820200D46002A40F0A780574906
:1092E0000068FFF7ADFC8046002840F0A2802968A6
:1092F0002368481C0BD04FF0A04001228A40C0F8E0
:10930000082501F5E0724FF0030C40F822C06868B0
:10931000421C1FBF00F5E0724FF0A04C4FF0000E52
:109320004CF822E0AA6995F814C0C3F824256A7D98
:10933000BCF1010F4CEA0202C3F86C25C3F80C150E
:10934000C3F814051DD1AA68511C1FBF02F5E071B6
:109350004FF0A0404FF0000C40F821C0E968481CD5
:109360000BD04FF0A04C01208840CCF8080501F547
:10937000E0704FF0030E4CF820E0C3F80815C3F876
:10938000102524237343FA18C2F804902A69FA506E
:10939000B9F1000F39D04FF4887120682D7FFFF7A5
:1093A000E7FE4FF490712068FFF7E2FE4FF49271F0
:1093B0002068FFF7DDFE4FF4A2712068FFF7D8FEAA
:1093C00020684FF4AC71FFF7D3FE22681C4BC2F843
:1093D0000433120B51B20029A8BF01F160404FEADB
:1093E0004513BABF174802F00F0500F56140DBB224
:1093F000B4BF435580F8003302F01F02012303FA83
:1094000002F24909104B43F8212023680822C3F8CF
:109410000025242303FB06730022C3E906225A61B8
:10942000012283F820204046BDE8F8834FF0080869
:10943000F9E74FF01108F6E7E8320020A1910200A9
:109440001003420014ED00E000E100E001F0604391
:10945000B3F1005F2DE9F041074638D11E4B067984
:10946000242505FB063598466C69002C31D16A61CC
:10947000A96000684FF49071FFF77AFE4FF4AC7169
:109480003868FFF775FE3B686A69A968C3F8441538
:10949000C3F8482501229A606A68AAB9D3F8202146
:1094A000D3F858411AB9002CF8D00F2407E0002C4B
:1094B000FBD10122DA60D3F85821002AFBD0242303
:1094C00003FB0686002373612046BDE8F08110246B
:1094D000FAE71124F8E700BFE83200200379044AD4
:1094E000242101FB03235869003018BF0120704775
:1094F000E8320020F8B501F06043B3F1005F0446A4
:109500000F465ED10379304D242101FB0351486899
:1095100020B121684FF40476C1F80863242101FBCF
:1095200003539E6956B1D969002939D020B1236807
:109530004FF40472C3F80423112030E09A61DF6015
:10954000DE614FF488712068FFF712FE4FF4A271BC
:109550002068FFF70DFE2368C3F83475C3F838257B
:1095600016BB01221A602179242202FB01525268A3
:109570000ABBD3F81041D3F84421D3F82401144393
:1095800002D10028F5D02246242303FB01550023F5
:10959000984218BF03209A42AB6118BF0F20F8BD54
:1095A0001F61DA610126CCE7D3F8002242F02002E5
:1095B000C3F80022D7E74FF40472C3F80423002055
:1095C000EDE71020EBE700BFE83200200220FEF7B5
:1095D00091BF00002DE9F04781460D46FEF7AAFF36
:1095E0000328044604D8012D04D025B3022D2FD022
:1095F000BDE8F087194D47003A18A918AE5C4A78C3
:1096000052B1DFF86880164842464FF48041FDF7BA
:1096100014FE08B988F800903B192B449A78114B36
:109620001A55002EE4D0104B1B68002BE0D03046BA
:10963000BDE8F04718470A48FDF717FE074B04EB53
:10964000440213449E78074B1B5DB342D0D1E8E738
:10965000024B00EB40041C446678E2E770330020C4
:109660003033002089330020843300200C33002065
:1096700002210078FFF7AEBF08B5094B1B7853B144
:109680000020FEF70DFF0120FEF70AFF0320BDE8D2
:109690000840FEF705BFBDE80840FEF70DBF00BF5C
:1096A0000D330020F8B57B4C237805461BB1002311
:1096B0002370FFF7E1FF172D00F28880DFE805F047
:1096C0000C17174354657680888D888D959A9A9AE1
:1096D0009A9AC4C9D1D9E4E4FFF7CEFF6E48FDF7EA
:1096E000C4FD6E4B002204461A702046F8BD0020CF
:1096F000FEF7BCFEF8B10020FEF7D2FE022D0CBF33
:109700004FF4E1614FF47A61644B1D704FF40040F7
:109710004FF47A740025E0FB01454FF4FA62002310
:109720002046294602F002FA002201465A48BDE8C6
:10973000F840FDF782BDFEF7A7FE022D0CBFC82141
:109740004FF4C871E0E70020FEF790FE40B1002022
:10975000FEF7A6FE4FF44871504B03221A70D5E76E
:10976000FEF792FEC821F7E70020FEF77FFE38B132
:109770000020FEF795FE4FF47A61484B0422EDE796
:10978000FEF782FE4FF4C871F7E70020FEF76EFE89
:1097900048B10020FEF784FE404B05221A7040F6C7
:1097A000CD410022C2E7FEF76FFEF5E70020FEF78D
:1097B000A1FE3A4B06221A70002240F26661B5E71C
:1097C0000020FEF761FE354B07221A7000248CE75B
:1097D00001202070FEF78EFEEEE701202070FEF7DC
:1097E00089FE00224FF40051A0E7FEF774FE2B4BD8
:1097F0000C22EAE72A482B4EFDF737FDD5F111057B
:1098000004461CD0D8B9012D13D0C8235D434FF4B2
:1098100000474FF47A7000214FF4FA620023C7FB2F
:10982000050102F083F9224601461D48FDF705FDBA
:1098300004460220FEF728FE0123337055E702207C
:10984000FEF72EFE0023F8E7FFF716FF134B122258
:10985000BBE7FFF711FF0020FEF716FE0F4B1322A8
:10986000B3E7FFF709FF0120FEF70EFE0B4B1422B2
:10987000ABE7FFF701FF0020FEF706FE0120FEF731
:1098800003FE064B1522A0E7FEF725FE034B1D70D5
:109890009CE700BF80330020503300208833002035
:1098A000103300200D330020044B1B68DB0703D569
:1098B000034B1878FFF7F6BE704700BF7C330020DB
:1098C00088330020032801D8FEF726BE0020704709
:1098D000044B1B6813F0010301D0FFF7E3BE1846E9
:1098E000704700BF7C33002038B51C4B18601C4B00
:1098F00010F00204054619601AD01A4B1A480E22BD
:109900001A700F22DA7010229A7111225A720421F1
:1099100040F23332FDF7EEFA044648B9FDF740FB5A
:10992000044628B90146114A1148FDF77BFC04465C
:10993000EB0711D50120FEF715FE6CB921460D4A43
:109940000D48FDF76FFC044630B90C4A0C48012164
:10995000BDE83840FDF766BC204638BD7C330020AA
:10996000843300207033002038CE0200719602004C
:109970005CCE0200A998020060CE0200CD950200E4
:1099800058CE0200032813D8012A0BD1012908D18F
:1099900000F10E02D2B200EB40000C4B1A54002032
:1099A000704700220129F6D04BB24BB1022901D0F9
:1099B00007207047054B00EB400018444270EEE76B
:1099C000024900EB400008448270E8E77033002051
:1099D000032808B512D8FEF7BFFD800000F1A040B3
:1099E000D0F8003723F44033C0F80037D0F8003700
:1099F00043F44033C0F80037002008BD0620FCE7E0
:109A000008B5012202210020FFF7BCFF08B107289A
:109A100010D1072202210120FFF7B4FF08B1072867
:109A200008D100210A220846FFF7ACFF10B1072831
:109A300008BF002008BD00000388102B10B502D01D
:109A4000112B1ED010BD1A4C2168B1B90122084655
:109A5000FFF798FF08B1072824D10722022101202F
:109A6000FFF790FF08B107281CD104220221002033
:109A7000FFF788FF08B1072814D12368013323605A
:109A8000E0E70B4A1368013B1360002BDAD1FFF7C4
:109A9000B7FF0028D6D0074B1B68002BD2D0BDE8FB
:109AA00010401847034B1B68002BE6D09847E4E7AB
:109AB000943300209033002008B50020FFF788FF82
:109AC00008B1062806D10120FFF782FF10B1062851
:109AD00008BF002008BD00000D4B10B518600C46F3
:109AE00029B10120FFF7EEFE40B102232370094B9C
:109AF0001B6853B9BDE81040FFF782BFFFF7E2FED5
:109B000008B10B23F2E72070F1E7002010BD00BF81
:109B1000903300209433002076DF70477ADF70475F
:109B20007CDF70477FDF70478FDF7047B1DF7047A2
:109B300033DF7047FDF74ABA08B50020FFF7C8FECB
:109B400008B1FDF743FAFFF7B7FF08B1FDF73EFA9A
:109B5000FFF7EEFF18B1BDE80840FDF737BA08BDC2
:109B60000388212B13B504463ED022D8112B2BD0CD
:109B7000132B41D0102B35D1274B284828490122DF
:109B80001A70284BC01AC008000440F00300FCF70C
:109B900049FF0720FFF79CFE08B1FDF717FA224B9B
:109BA000A1882248198001F009FCD8B1FDF70EFA0E
:109BB00018E0522B28D0562B01D03B2B12D1132169
:109BC000A088FFF7A9FFF0E7164B14481849C01A00
:109BD000C008000440F00300FCF724FF124B4FF6CE
:109BE000FF721A8002B010BD002301A98088ADF871
:109BF0000430FFF799FFD8E70B4800231A46852168
:109C00000088FFF78FFFD0E7074800231A46194660
:109C10000088FFF78BFFC8E798330020C8C6020012
:109C20007CCE0200A0C60200062B0020DC380020FB
:109C300086CE02000D4B4A881B889A4214D10A88AE
:109C400040F677239A420FD18B88094A09480A497E
:109C5000033B9BB21380094A801AC00800041A46CD
:109C600040F00300FCF7EBBE704700BF062B00205E
:109C7000042B0020C8C6020093CE0200A0C602003A
:109C800008B503784BB9054B3B211888FFF744FF13
:109C900018B1BDE80840FDF799B908BD062B0020B2
:109CA000072808B513D00A280DD0042819D10D4B68
:109CB00013211888FFF730FF30F0080311D0BDE8FA
:109CC0000840FDF783B9BDE80840FFF735BF054BF5
:109CD0001A884FF6FF739A4203D1034800F025FF1C
:109CE000EAE708BD062B00209034002008B548B1F3
:109CF00003280BD10220FFF7EBFD38B1BDE8084087
:109D0000FDF764B9BDE80840FFF716BF08BD0000C5
:109D10000378012BF7B534D01BB1022B31D003B03F
:109D2000F0BD1A4C1A4D20782844FDF745FC2378E5
:109D30000133DBB21D44237015F8012C0A2A05D02B
:109D40000D2A03D0134A12889A42E8D8012B15D95C
:109D5000114D0F4E114F2378ADF806300DF106026C
:109D60002B883146384601F09BFC082806D0132882
:109D7000F1D0052802D008B1FDF728F9002323709F
:109D8000CDE74068FDF722F9C9E700BF8D34002018
:109D900099330020042B0020062B0020082B0020E4
:109DA0002DE9F0410578064645BB154C154BDFF80B
:109DB0005880E41AE408240444F00104B28A95426D
:109DC0000AD33369134413F8013C0D2B16D10A2032
:109DD000FDF708FC1128F9E73369585DFDF702FC2F
:109DE000074648B11128F7D0024641462046FCF705
:109DF0001DFE3846FDF7EAF80135DFE7BDE8F081E2
:109E0000C8C60200A0C60200F6CE0200FDF7DEB80A
:109E100008B50849084801F0BDF908B1FDF7D6F8C2
:109E2000F721054801F0CAF918B1BDE80840FDF76F
:109E3000CDB808BD359C0200C438002080B57E4DE9
:109E40000FCDB0B005AC0FC495E803007B4B7C4A46
:109E500001934FF4807384E80300CDE90323029358
:109E6000784A072301A905A8FDF74EFB08B1FDF7C5
:109E7000ADF84FF480410020FCF710FC08B1FDF76D
:109E8000A5F8FCF741FBFDF79BF908B1FDF79EF83B
:109E90006D490320FFF728FD08B1FDF797F805A9E4
:109EA0000020FFF719FE08B1FDF790F8FEF7EAF879
:109EB00008B1FDF78BF801F071FC08B1FDF786F8E9
:109EC000002305A90120059301F0F6FC08B1FDF778
:109ED0007DF805A801F0C0FD08B1FDF777F8112362
:109EE0005A488DF8043001F0CCFF584982B201A8DD
:109EF000FFF716FE08B1FDF769F80021082205A852
:109F000001F06AFF52494FF0C87305A8CDE9051367
:109F1000FFF704FE08B1FDF759F8FFF779FF4D4B45
:109F20004D48059305A901F037FA08B1FDF74EF841
:109F3000042200210DEB020001F04EFF474B484880
:109F4000019301A901F036FB08B1FDF73FF8AC22FF
:109F5000002105A801F040FF02238DF814304FF4D2
:109F6000A063404AADF816300123ADF86030199275
:109F70008DF89030402244F25063CDE9272305A9A3
:109F8000394B3A482E9300F010FC08B1FDF71EF84B
:109F90000121364800F006FC1C22002105A801F032
:109FA0001BFF00234FF4A032CDE90532ADF822307B
:109FB0004FF4F0228DF824302D4B07920A930322A0
:109FC0002C4B8DF8202005A80B9300F0CBFE08B198
:109FD000FCF7FCFF284801F0A5FE284B284829493A
:109FE000C01AC008000440F00300FCF71BFD032169
:109FF0001E4800F059FC08B1FCF7E8FF224C234D45
:10A0000000F04AF80623ADF8143026462378002BDA
:10A01000FCD01F4FDFF87C803378002BF6D0294628
:10A020003846062200F052F8B8F800300C4805AA6D
:10A03000294601F035FBEFE764CE0200E838002046
:10A04000EE390020119D0200A19C0200AFCE02005B
:10A0500010003C00359B0200DC380020A19D02006E
:10A06000082B0020002B0020ED9C020090340020E3
:10A07000819C02000D9E0200BBCE0200A0C6020021
:10A08000C8C60200CDCE020098330020E839002077
:10A09000EE3A0020062B00200B4B1B22C3F80825AC
:10A0A0001A210222C3F81025C3F80C151721C3F892
:10A0B00014150021C3F85415C3F800254FF0A04330
:10A0C0000C22C3F85C277047003000400E4B82B072
:10A0D000C3F83415C3F838254FF0A041C3F8440540
:10A0E000C3F84825D1F8102512F40002FAD1074B25
:10A0F0001A601A680192019A054A012111601A68D2
:10A10000002AFCD002B0704700300040043100400B
:10A11000283000400369C1688B429DBF8268D21815
:10A1200002F1FF3203F1FF3394BF501A581A7047FF
:10A130002DE9F041D0E9027405463E1B4068964285
:10A1400020448846144404D901F01DFEEC60BDE8AB
:10A15000F0813246E41B01F016FE224608EB0601B0
:10A160006868F1E72DE9F843C56806468946174651
:10A170004FF000083469B3687068A54228BFE4183E
:10A18000013C621B5C1BBC4228BF3C46944228BF7A
:10A19000144649462844224601F0F5FDB36825449B
:10A1A000AB4208BF00253F1BA044A144F560E1D1AC
:10A1B0004046BDE8F883000010B5114C114AA26179
:10A1C0000223C4E90433104BE361A2644FF400732B
:10A1D0000E4A2362E264002310220D49A362E01DAF
:10A1E0006362E362A3656365E365226501F027FEB0
:10A1F0000849204601F023FE2023A37110BD00BFB3
:10A20000F43A002021CF02007C3B00206C3B002070
:10A210002ACF02002ECF0200F8B5184C182300FBFD
:10A22000033503FB00402544C46A012C0F46164643
:10A2300011D024B1022C1BD000242046F8BD2846A2
:10A24000FFF768FFB042F8D3324639462846FFF799
:10A250006FFF3446F1E72846FFF75CFF864234463D
:10A2600028BF0446224639462846FFF761FFE4E747
:10A270002846BDE8F840FFF775BF00BFF43A00205C
:10A28000FFF79ABF6DDF704779DF70477DDF70475A
:10A2900064DF70472DE9F04F85B000250E9CBDF8B6
:10A2A0003CB027880191804691469A462E46B8F8E0
:10A2B0000020B2420CDC3DB12288013AD21B92B29E
:10A2C000FF2A3BD80AF80720002005B0BDE8F08F30
:10A2D000D8F8042052F82600039000220DF10B015B
:10A2E00003A8FFF7D5FF0028EFD19DF80B204A45C2
:10A2F00022D12288002D14BF0020022002EB090188
:10A30000014459451ADC45B9013292B2019B2280C1
:10A310000AF8023022880132228022880DF10B01D6
:10A32000524403A8FFF7B4FF0028CED121889DF83E
:10A330000B200A44228001250136B8E70C20C4E72F
:10A340002DE9F341089CBDF824501746CDE900459E
:10A35000022206469846FFF79DFF50B94346102259
:10A3600039463046CDE9084502B0BDE8F041FFF777
:10A3700091BF02B0BDE8F0812DE9F04F00231688AF
:10A38000138090F82D3085B007460D46144653B320
:10A39000082E01D80C2027E102A8FFF773FF002840
:10A3A00040F0228123880822EA54238801339BB29B
:10A3B0001B222380EA542088013080B220800622AC
:10A3C0000DF10901284401F0DEFC23889DF80820E6
:10A3D00006339BB212F0FE0218BF01222380EA541A
:10A3E000238801332380BB78FBB123880433B34235
:10A3F000D0D802A8FFF748FF002840F0F580238856
:10A400000322EA54238801339BB219222380EA54A1
:10A410002388BDF8082001339BB2E9182380EA5451
:10A42000120A4A70238802332380FA789AB123886B
:10A43000D91CB142AED80221E954238801339BB222
:10A4400001212380E95423880B449BB22380EA54E2
:10A4500023880B4423807A68AAB12388D91CB1428F
:10A4600098D8022192F90020E954238801339BB245
:10A470000A212380E954238801339BB22380EA54C4
:10A480002388013323803B89002B40F0A1803B8A45
:10A490005BB1CDE900462B460722032107F11000EE
:10A4A000FFF74EFF002840F09F803B8B5BB1CDE96A
:10A4B00000462B461522142107F11800FFF740FF34
:10A4C000002840F091803A6A002A40F09080D7F846
:10A4D0002480B8F1000F30D0B8F804302188981CDF
:10A4E0008A1C0244B2423FF655AFFE283FF652AFF7
:10A4F00003336B54238801339BB2FF222380EA5439
:10A50000238801339BB22380B8F80020EA54E9186D
:10A51000120A4A702088023080B22080B8F80420E5
:10A520005AB1D8F8081000296BD0284401F02BFC50
:10A530002388B8F804201344238097F82C30002B8C
:10A5400040F09A80387800284ED03B88012B58D0B4
:10A55000228802F1020CB4453FF61CAF012805D158
:10A560007B78023313449E42FFF414AF023EB61AC6
:10A57000B6B202A905EB0C00ADF80860FFF786FE45
:10A5800090BB3978BDF80820022900F0BA807B78AA
:10A59000934202D3B24240F2B280012940F0B3802C
:10A5A0009BB29E42C0F0AF80ADF808300821BDF8E4
:10A5B0000830FE2B3FF6EEAE22880133AB542288E2
:10A5C000013292B22280A9542288134423800BE0E6
:10A5D000CDE900462B460622022107F10800FFF7CD
:10A5E000AFFE00283FF453AF05B0BDE8F08FB4F8DC
:10A5F00000C00CF10603B3423FF6CCAE118805292A
:10A6000001D80720F0E76FF4486E01EB0E039BB210
:10A610004FF27D3E7345F4D95388052BF1D96FF481
:10A620004860181880B27045EBD94FF6FF70814230
:10A6300003D0834201D09942E3D8052305F80C30BA
:10A64000238801339BB212212380E95423880133EC
:10A650009BB223801188E954E818090A41702388C5
:10A6600002339BB223805288EA54E918120A4A70D6
:10A670002388023323802AE7BB6A002BC1D04FF026
:10A6800000094FF00C0A4FF0160B97F82C305FFAC8
:10A6900089F293427FF656AFB96A0AFB02F201EBE8
:10A6A0000208B8F80430981CFE283FF673AE2088E4
:10A6B00003332B54238801339BB2238005F803B066
:10A6C000238801339BB223808A5AEA54E918120A7C
:10A6D0004A702088023080B22080B8F804205AB135
:10A6E000D8F8081000298CD0284401F04CFB2388AE
:10A6F000B8F804201344238009F10109C5E70921B2
:10A7000055E7B242FBD9ADF808604FE770B5E0B14C
:10A710004AB116880024B44203D305196D789D42CE
:10A7200008D0A14201D800200FE0055D01352C447E
:10A73000A4B2F0E7A142F6D9005DA31C01389BB298
:10A7400080B21C188C42EEDC138070BD13B5002360
:10A75000ADF8063013460DF106020446FFF7D6FFAA
:10A7600010B1BDF80600204402B010BD72DF704782
:10A7700073DF704774DF704738B5012204460D4619
:10A78000B0F81414D0F81004FFF7E0FF00B1057022
:10A7900004F13C0204F5826104F15400BDE8384044
:10A7A000FFF7E4BF80F830107047F8B504460F4655
:10A7B000002975D0002873D091F87A301BB191F838
:10A7C0009830002B6ED1D7F8A030042B6AD0D7F880
:10A7D0009C30042B66D007F178060FCE4FF0000CAA
:10A7E000251D84F802C00FC50FCE0FC596E80700DF
:10A7F00085E8070084F830C0D7F8A4306363D7F841
:10A80000A830A3634FF6FF7504F58263C4F82034C3
:10A81000A4F824540722614604F2264001F0DCFA31
:10A8200023780BB984F8545094F82430002B14BFCB
:10A83000EE231F2304F15501C4F81014A4F81434B6
:10A8400004F214423846FFF797FD40BB94F82430D9
:10A85000002B14BFEE231F2304F23121C4F8181477
:10A86000A4F81C3404F21C4207F13C00FFF784FDFD
:10A87000A8B9A369A4F848304FF480730125A4F85F
:10A88000503063692064014684F83C50636404F1ED
:10A890003C0204F15400FFF769FF00B92570F8BDD0
:10A8A0000E20FCE70720FAE7F8B5077804460D46C6
:10A8B000002F00F0038100F22646A170072200213C
:10A8C000304601F089FAE38813B1A378012B04D054
:10A8D000E3794BB1A378022B06D1636BA3B10122BC
:10A8E00084F82D2408209847334604F22C4113F8AD
:10A8F000012F12B98B42FAD117466B1E032B51D888
:10A90000DFE803F0050B0F1284F82D34ECE7A37990
:10A910001BB194F8243003B95FB9E3790BB1002F70
:10A9200042D1237A002B41D1637A002B0CBF002542
:10A930000425636BA570002B3AD0033D012D37D859
:10A940006279AAB394F82E2492BB84F830240122B1
:10A9500084F82F240720984704F13C051822002191
:10A96000284601F039FAE26A531E0121022B28BF62
:10A970000A4684F8512094F8242084F83C1032B11F
:10A98000A36A581E022828BF0B4684F85230A178CB
:10A99000002384F8503004291BD8DFE801F0770D3C
:10A9A000223559000025C4E70225C2E70325C0E788
:10A9B000002384F82F34CFE7C4F82034C4E91063AF
:10A9C0000223012284F83C30802384F83120A4F84B
:10A9D0004830A378002B5CD1636B002B6AD1002038
:10A9E00067E00223002A84F8313014BF07230323D1
:10A9F00084F83C302369A4F848300023C4F820349C
:10AA0000E36826646364E4E763696364A369A4F8A4
:10AA1000483012B1062384F83C306379B3B194F81E
:10AA20002E349BB994F8303483B1022384F850302B
:10AA300004212046FFF7A0FE0028CAD1052384F890
:10AA4000313004F58263C4F82034C2E70323F6E70B
:10AA5000E3696364236AA4F8483012B1062384F8DA
:10AA60003C30637983B194F82E346BB994F8303468
:10AA700053B1022384F8503004212046FFF77CFEB6
:10AA80000028A6D10623DAE70423D8E784F831307A
:10AA90009FE72A46D4F8201404F15400FFF766FE1D
:10AAA00038B994F8301094F85400FFF761FE00288C
:10AAB00092D0F8BD94F83100984790E70820F8E765
:10AAC0000388112B10B50C460AD0262B1FD0102B53
:10AAD00005D1C37B012B02D18388A1F8243410BD9A
:10AAE0000022838881F82E24B1F824249A42F6D1DA
:10AAF0000B79002BF3D101212046FFF7D5FE00286A
:10AB0000EDD0A36B002BEAD0BDE810401847037AC4
:10AB1000013B012BE3D8897805230131B1FBF3F325
:10AB200003EB8303C91AC9B2E6E738B5044690F8C7
:10AB30005400FFF71FFE012384F82E34002384F80D
:10AB4000303484F8503006212046FFF715FE0546C4
:10AB500038B9A1782046FFF7A7FE10B1A36B03B167
:10AB60009847284638BD75DF704776DF70477ADF33
:10AB700070477BDF70470000034B1A8882420CBF8E
:10AB800018460020704700BF983D0020024B9B698B
:10AB900003B11847704700BF7C3D002073B586B2F3
:10ABA0003046FFF7E9FF044670B1164D027A2B7B61
:10ABB0009A420BD200F10A013046FFF7D4FFE8B108
:10ABC000112801D0FFF7E2FF02B070BD002303722D
:10ABD0002B7C43B13B213046FFF7C7FF30F0080321
:10ABE00001D0FFF7D3FF6B69002BEDD000228DF869
:10ABF0000420ADF8066001A89847E5E7237A013301
:10AC00002372E1E77C3D002013B50B46497A0F4CD7
:10AC1000024669B9D4E901101C7A002C18BF01461C
:10AC20005868FCF70AFB08B1FFF7B0FF02B010BD8F
:10AC3000002119726369002BF8D00121ADF80600DC
:10AC40008DF8041001A89847F0E700BF7C3D002074
:10AC50004B8802889A4213D842889A4210D380883F
:10AC60008A8840F2F313984294BF031AC31A93429E
:10AC700006D800F2F310904234BF00200120704744
:10AC8000002070470388112B70B5014648D002D8C8
:10AC9000102B1ED070BD122B52D0502BFAD12F4B3F
:10ACA000C288DB899A42F5D1038A022BF2D18688C9
:10ACB0003046FFF761FF05460028EBD001F1120096
:10ACC00000F079F930BB6868FCF7CFFA0028E1D0D2
:10ACD00009E0C37B012BDDD14FF6FF70FFF74CFF7E
:10ACE000054620B90420BDE87040FFF74FBF1C4A5D
:10ACF0008E880680002303721368C5F80A300A3074
:10AD0000536843601031FFF7A3FF144B6872DB896F
:10AD1000002BBFD129463046BDE87040FFF774BF15
:10AD20008088FFF729FF04460028B3D04068FCF76D
:10AD30009CFA08B1FFF72AFF4FF6FF732380A9E7BB
:10AD400086883046FFF718FF05460028A2D0083154
:10AD50000A30FFF77DFF6872DCE700BF7C3D002012
:10AD6000AC3D0020F8B5064648B305460FCD154F5B
:10AD70003C460FC495E8070084E807003068124C91
:10AD80003C60B0B1FFF7F3FEC0B9326813682360CE
:10AD9000536863600D480E4A4FF6FF7303800D4BF6
:10ADA00040F8043F0021FCF73DFA002818BF0320BB
:10ADB00004E02046FFF7DDFE0028EBD0F8BD0E20B2
:10ADC000FCE700BF7C3D0020AC3D0020983D00200A
:10ADD0009DAB0200B83D00200AB1FCF729BEFCF78C
:10ADE00030BE73B50191019C06466CB100252C461E
:10ADF000294601A8FCF72FFE18B106EB44030134E5
:10AE00009D800135142DF3D13046346002B070BD01
:10AE10002DE9F04703888488103B8CB005460A2B47
:10AE20001FD8DFE803F0063F1E1E1E1E1E1E1E5FFB
:10AE30004400314EB368DB43009371686846FCF709
:10AE400033FE009901A8FFF7CCFF0DF108094FF080
:10AE50000008019B984507D3132C13D90420FCF755
:10AE6000B5F80CB0BDE8F08739F802AB0027013720
:10AE7000514606EB8700FCF7E4FD1E2FF7D108F1E1
:10AE80000108E6E721461D48FCF7D2FD21461C4893
:10AE9000FCF7CEFDEB7B012BE3D021461948FCF7F4
:10AEA000C7FDDEE721461548FCF7CBFDD9E7057A5B
:10AEB00015482D09032D94BF002201222146FFF7DA
:10AEC0008BFF022D94BF0022012221460F48FFF77D
:10AED00083FF012D0E4894BF002201222146FFF777
:10AEE0007BFFBEE7037A002BBBD1427A0648C2F350
:10AEF000C0022146F3E700BFD83D0020E03D00201E
:10AF0000DC3D0020E43D0020F03D0020EC3D002031
:10AF1000E83D00201328014602D80248FCF79BBDFB
:10AF200000207047DC3D002010B50446FFF7F2FF1B
:10AF3000002814BF2046142010BD70B505461646E3
:10AF40000AB90E2070BD002313600028F9D00368F1
:10AF5000002BF6D0C38813F003040FD10846FFF787
:10AF6000E3FFC0B214280BD02B7983420AD9EB88B7
:10AF70002A6800FB032333602046E3E70720E1E76C
:10AF80000520DFE70420DDE7AADF70470023013852
:10AF90000B70042806D8DFE800F00306080A0C004E
:10AFA00011230B7070472123FBE73123F9E71223AC
:10AFB000F7E72223F5E7007800F001007047F0B5CD
:10AFC0008B7891B0002B0C4608BF01238DF80E3012
:10AFD00005460B88ADF80C30002116466846032262
:10AFE00000F0FAFE6946607CFFF7D0FF0DF1010129
:10AFF000A07CFFF7CBFF9DF80230E27B62F3C30336
:10B00000227C62F30413227B62F30003227D002A78
:10B0100014BF0222012262F3420300211C2209A86C
:10B020008DF8023000F0D8FE637B13F0300F15D09E
:10B0300002AF03220021384600F0CEFE0DF10901D7
:10B04000E07CFFF7A3FF11238DF808309DF80A304C
:10B050000E97012262F342038DF80A30637B8DF86C
:10B0600024301422A37B8DF82530002104A800F0A1
:10B07000B3FE03AB0493A388ADF81C30A368CDF8EE
:10B0800014D01BB1E288ADF818200893A369002BF7
:10B090002ED001AF03220021384600F09DFEA369A7
:10B0A0001A88ADF82C205A88187BADF82E20394626
:10B0B0005A680A920D97FFF769FFA3690DF1050120
:10B0C000587BFFF763FFA2699DF80630917A61F320
:10B0D000C303D17A61F30413117A927B002A61F3DE
:10B0E000000314BF0222012262F342038DF80630EE
:10B0F000E36903B10C93334604AA09A92846FFF774
:10B1000043FF11B0F0BD90DF7047A5DF7047B5DF9A
:10B11000704700007FB50023ADF80810ADF80A10A5
:10B120006A4602A9064603930093ADF80430FFF780
:10B13000EAFF054600B3124B124CE41AE408FDF78F
:10B140001BF8240444F00104034632460E4920460D
:10B15000FBF775FCBDF80020BDF8023052EA030190
:10B1600003D00A492046FBF76AFCBDF804201AB157
:10B1700007492046FBF75AFC284604B070BD00BFC3
:10B18000A0C60200F0C6020035CF02007FCF020049
:10B19000BECF020080B14FF0F7130360FB230371B1
:10B1A000F723C3801723038141F6FB32002301619B
:10B1B00043818281184670470E20704730B1A1F15B
:10B1C0001703E02B04D80180002070470E20704741
:10B1D0000720704713B5034680880C46A0B91A882B
:10B1E000232A00F0A48011D8102A22D0112A51D08D
:10B1F000A37A4BB1E1880020FFF787FF002840F0D9
:10B200009C804FF48073638102B010BD3A2A4AD00B
:10B21000552A60D0242AEBD11A7A0B694A73002B85
:10B22000E6D04DF67A21ADF8040000918DF80420A7
:10B2300079E0DB7B0A790A73012B13D0022B14D03F
:10B24000E18823898B4205D20020FFF75EFF70B9A9
:10B250000123E372217B637B8B42C9D20020FFF77D
:10B2600059FFC5E70B88E380EAE74B88FBE7112825
:10B2700002D10123A372EDE7FCF77EFF374A384B7A
:10B2800038499B1ADB081B04024643F00100FBF718
:10B29000CDFBDFE7F723CB8017230B8141F6FB3390
:10B2A00048818B81A4E75B89CA88934228BF1346F3
:10B2B000172B0A6938BF17230B814AB1C97A39B1F4
:10B2C00040F677210091ADF804306946204690475A
:10B2D000002363818CE7DB88C988A072172B38BFF5
:10B2E00017238B4228BF0B462381FFF710FF60B165
:10B2F000FCF742FF194A1A4B1B499B1ADB081B0437
:10B30000024643F00100FBF791FBE37A002B7FF448
:10B310006FAF2369002B3FF46BAF40F677220092AA
:10B320002289ADF8042069462046984760E7197ADB
:10B33000237B994228BF194691E711283FF464AF57
:10B34000FCF71AFF054A064B06499B1ADB081B044B
:10B35000024643F00100FBF769FB55E7A0C6020077
:10B36000F0C6020014D0020045D00200B0DF7047E2
:10B3700066DF704710B5002104464088FFF7F8FFEC
:10B38000034608B9237210BD112801D10123F9E742
:10B390006368BDE81040184760B159B10378DE2BEF
:10B3A0000AD00B684360DE2303704FF6FF734380BF
:10B3B000002070470E2070470820704728B103789E
:10B3C000DE2B04D14180002070470E2070470820FA
:10B3D0007047F0B5054685B00C46F1B1E8B10B7881
:10B3E000DE2B1AD182884B889A4204D10B7A13B192
:10B3F0000846FFF7BFFF2B88112B32D0512B0ED000
:10B40000012B0AD12B7A012B07D1A988628891429E
:10B4100003D123722046FFF7ADFF05B0F0BDAE8823
:10B420006388B342F9D1AF79022FF6D1AD7B2B1FE0
:10B43000022BF2D800211022684600F0CDFC052D29
:10B4400014BF4FF4C0730023694630468DF8007076
:10B45000ADF80430FFF78AFF0028DED06368984714
:10B46000DBE76388AA889A4204BF4FF6FF736380C4
:10B47000D3E7A8DF7047ADDF7047AEDF704762DF0C
:10B48000704770B505468AB00C46002962D0002886
:10B4900060D00388502B37D0572B72D0102B59D146
:10B4A00081886069002601AA0196FFF746FD0822FF
:10B4B00031460DEB020000F08FFC022302AA218925
:10B4C000A888CDF80CD00293FFF7D5FF002841D112
:10B4D000A369002B3ED00398FFF76DFD002839D0FB
:10B4E000019B0BB101221A701822002104A800F060
:10B4F00073FC02238DF81030AB88ADF81830019B37
:10B5000005940793A36923E08188606902AAFFF785
:10B5100014FD1822002104A800F05EFCAB88ADF8F1
:10B5200018302189EB88029A05949942079218D124
:10B530002E8A022E15D16AB105F11200FFF73BFDEC
:10B54000029B48B101221A708DF81060A3690BB1FB
:10B5500004A898470AB070BD187003238DF8103006
:10B56000F4E7A2899A42F5D1A369002BF2D0002218
:10B570008DF8102005F1120208922A8AADF82420D5
:10B58000E6E78188606902AAFFF7D7FC0146002838
:10B59000E0D1029B1B78002BDCD0182204A800F01D
:10B5A0001BFC01238DF81030AB88ADF818300594E2
:10B5B000029BA6E7F0B5384B8FB002AA04460E46B0
:10B5C00003F1100C174618685968154603C508336F
:10B5D00063452A46F7D1002C5BD0002E59D0336842
:10B5E000A36121463846FFF74AFF00284FD1224683
:10B5F000012512F8023B8DF8063001A92846ADF866
:10B600000450FFF736FF002841D10146202206A84A
:10B6100000F0E2FB22460223ADF8183012F80C3B92
:10B620008DF81A30BDF824301C4E6088079603F45C
:10B63000734343F440632B4306A9ADF824308DF8DF
:10B6400029508DF82A50FFF7BAFC00BB0146202292
:10B6500006A800F0C1FB22460323ADF8183012F80B
:10B66000043B8DF81A30BDF824306088079603F447
:10B670006F4343F480532B43ADF8243006A940F2C6
:10B6800001138DF82950ADF82A30FFF798FC0FB060
:10B69000F0BD0E20FBE700BF81D00200F4000100E6
:10B6A000F0B50F4687B016461C46054618B301AAEA
:10B6B00019464069FFF741FCD8B94FF6FF739C4229
:10B6C0001BD0019BCBB11B78CBB13388F42B18D89E
:10B6D0000146102202A800F07FFBAB88ADF80830CD
:10B6E00002A901232046CDE904678DF80A30FFF74F
:10B6F000C4FE07B0F0BD0E20FBE70520F9E70820E7
:10B70000F7E70720F5E710DF7047000013B50446A0
:10B7100009496846FCF7D5FC019808B902B010BD8C
:10B72000D0E900312046984718B16846FCF7D3FCB1
:10B73000F2E71120F2E700BFA0D0020013B50446E3
:10B7400007496846FCF7BDFC019B0BB902B010BD70
:10B750002046D3E9002190476846FCF7BCFCF3E79C
:10B76000B8D002000B4991F816335A09EC23134163
:10B77000DB0706D5084B9A683AB94FF480030B6093
:10B78000704742F20200FBF721BC1A6842F48002C3
:10B790001A60704700E100E008320020F7B5194F49
:10B7A0003C7864BB184E012520463570FFF7AEFF8C
:10B7B000112821D02046FFF7C1FF144B8DF803401C
:10B7C000186801900DF10300FBF734FF104901A840
:10B7D000FFF799FF0446B0FA80F0400938709DF8F1
:10B7E0000300FBF74BFF3CB90A4B34701C70FFF7AA
:10B7F000B9FF2846FFF7A2FF204603B0F0BD08249A
:10B80000FAE700BF553E0020543E002099D00200C8
:10B81000E96F0200563E0020014B1878704700BFC8
:10B82000553E002007B508496846FCF74AFC019BD5
:10B8300013B903B05DF804FBD3E9002090476846D4
:10B84000FCF749FCF3E700BFACD00200FFF7EABF0A
:10B8500060DF704769DF704761DF704730B5114DB9
:10B86000ADF5017D4FF4FA740DF1020103A8ADF8B6
:10B870000240FFF7F1FF70B9294601A8FCF721FC4F
:10B88000029B002BF0D003A8D3E90021904701A828
:10B89000FCF721FCF4E7052801D0FBF797FB0DF539
:10B8A000017D30BD3CD30200024B1B780BB1FFF78A
:10B8B000D5BF7047573E002030B5054685B00C46D1
:10B8C000002900F0B5805B4B0B600C22002101A821
:10B8D00000F082FA01238DF8063022688DF80450BA
:10B8E000062301A92020ADF80830FFF7B3FF60B1AF
:10B8F000FCF742FC504A514B51499B1ADB081B0490
:10B90000024643F00100FBF791F80C22002101A848
:10B9100000F062FA01238DF805302268002301A9A6
:10B920004020ADF80630FFF795FF60B1FCF724FC2E
:10B93000414A424B43499B1ADB081B04024643F031
:10B940000100FBF773F80C22002101A800F044FA73
:10B95000F72322688DF8045001A92320ADF80630A2
:10B96000FFF778FF60B1FCF707FC334A334B3649E9
:10B970009B1ADB081B04024643F00100FBF756F854
:10B980000C22002101A800F027FA012022688DF87E
:10B99000040001A9FFF75EFF60B1FCF7EDFB264A4A
:10B9A000264B2A499B1ADB081B04024643F0010080
:10B9B000FBF73CF80C22002101A800F00DFA4FF42F
:10B9C000B0632268019301A9A120FFF743FF60B192
:10B9D000FCF7D2FB184A194B1D499B1ADB081B04C4
:10B9E000024643F00100FBF721F80C22002101A8D8
:10B9F00000F0F2F99DF8043022686FF3000301A90A
:10BA0000A0208DF80430FFF725FF034668B1FCF74E
:10BA1000B3FB094A094B0F499B1ADB081B0402467A
:10BA200043F00100FBF702F80023184605B030BDD3
:10BA30000E23FAE7D82A0020A0C6020000C70200A1
:10BA4000CCD0020012D102005ED10200A5D10200CA
:10BA5000F1D1020042D20200F8B506460768FFF7AE
:10BA6000F7FE3368BB4205461DD9194B194C1A49DC
:10BA7000E41AE408240444F002042046FAF7D2FF52
:10BA8000336816493A462046FAF7D9FF4FF08053FB
:10BA90003268D3F80C3112499B0203F100539A1A11
:10BAA0002046FAF7C3FF25B90E4B01221A7028462B
:10BAB000F8BD2846FCF760FB054A064B0A499B1A6D
:10BAC000DB081B04024643F00100FAF7AFFFEEE784
:10BAD000A0C6020000C7020095D20200C4D2020034
