:1000000000000120750300005D0300005F03000095
:1000100061030000630300006503000000000000AE
:100020000000000000000000000000006703000066
:1000300069030000000000006B0300006D03000076
:100040006F0300006F030000BD1500006F03000088
:10005000591600006F030000391400006F03000000
:100060006F0300006F0300006F0300006F030000C8
:100070006F0300006F0300006F0300006F030000B8
:100080006F030000490D00006F0300006F030000C4
:100090006F0300006F0300006F0300006F03000098
:1000A0006F0300006F0300006F0300006F03000088
:1000B0006F0300006F03000000000000000000005C
:1000C0006F0300006F0300006F0300006F03000068
:1000D0006F0300006F0300006F03000000000000CA
:1000E0000000000000000000000000000000000010
:1000F0000000000000000000000000000000000000
:1001000000000000000000000000000000000000EF
:1001100000000000000000000000000000000000DF
:1001200000000000000000000000000000000000CF
:1001300000000000000000000000000000000000BF
:1001400000000000000000000000000000000000AF
:10015000000000000000000000000000000000009F
:10016000000000000000000000000000000000008F
:10017000000000000000000000000000000000007F
:10018000000000000000000000000000000000006F
:10019000000000000000000000000000000000005F
:1001A000000000000000000000000000000000004F
:1001B000000000000000000000000000000000003F
:1001C000000000000000000000000000000000002F
:1001D000000000000000000000000000000000001F
:1001E000000000000000000000000000000000000F
:1001F00000000000000000000000000000000000FF
:10020000354936480A1A02D0072291438D463449AF
:1002100034480A1A06D00722914381F30988022242
:1002200082F3148830483149314A00F044F83148AB
:100230003149324A00F03FF831483249324A00F041
:100240003AF832483249334A00F035F832483349F7
:10025000334A00F030F833483349344A00F02BF881
:1002600033483449344A00F026F8344834490022EF
:1002700000F02CF833483449002200F027F83348C6
:100280003349091A082902DB002202604160314A21
:1002900090471F481F49884205D00268043003B4C4
:1002A000904703BCF7E700208646EC46002000217B
:1002B000294A9047FEE7884207D0521A05D00378B2
:1002C00001300B700131013AF9D17047884202D0F8
:1002D00002700130FAE770470000012000E00020C2
:1002E00000000120000001208433000000000020F5
:1002F00034000020D0030000D00300001C2F0000B9
:10030000843300000000002000000020882F00003F
:10031000882F0000882F0000882F0000882F000001
:10032000882F0000882F0000882F000084330000F1
:10033000B8330000340000203400002034000020D6
:10034000F0080020F0080020F0080020F00800204D
:10035000F02800209D03000061200000FEE7FEE77A
:10036000FEE7FEE7FEE7FEE7FEE7FEE7FEE7FEE765
:1003700000F002B8FFF7FCBF0F484FF007018843B9
:1003800085460E4880470E48016841F470010160BF
:10039000BFF34F8FBFF36F8FFFF732BF09480A4992
:1003A0000A4A884207D0521A05D0037801300B70F0
:1003B0000131013AF9D170470000012021230000EA
:1003C00088ED00E0882F00000000002000000020E1
:1003D000F0B595B01C46164608460D4600F079FF6C
:1003E0001A9B0D93CDE9086400242346082205A931
:1003F00028460A948DF82C400C9400F087FF079B48
:100400000293069B03939DF814308DF8114003F07E
:100410000302012A1DD1BDF81440059EC3F3C20397
:10042000C4F383148DF81030A20008230EA92846C7
:1004300000F06CFFC6F3952608AB0093224602AB92
:100440000EA9304600F066FB284600F046FF15B0C6
:10045000F0BD022AF8D1BDF81640C3F3C203A409C7
:100460008DF810300827082C264628BF08263B4662
:1004700032460EA9284600F049FFA41B08AB02AA89
:1004800031460EA8374400F0A9FB002CEBD1DBE786
:10049000014B01221A707047750000207047000060
:1004A00070B50E4D06460FCD88B06C460FC495E86A
:1004B0000F00002E84E80F004FF00603084A094899
:1004C000009308BF0022694600F05EFF08B100F00B
:1004D000DFFB054B1E7008B070BD00BF882F000009
:1004E00091040000000000203400002007B5044BF8
:1004F0000093044A4023FFF76BFF03B05DF804FB51
:10050000090500003500002038B50D4B0D4D0020C9
:1005100018700D4804782D5DD2B21C4665B10430C8
:1005200001F004FD08B100F0B3FB084B1A7812B1DA
:100530002378002BFBD038BD0C3001F0C9FAF1E76D
:1005400075000020840500200000002034000020F9
:1005500008B50848084A0378D35C3BB1043001F081
:100560006FFC0020BDE80840FFF79ABF0C3001F097
:100570004BFAF6E70000002084050020037813F012
:10058000040216D003F00303012B03D0022B09D081
:10059000012070470A6800880232C0F383100244C9
:1005A0000A60F5E70B684288023303EB92130B6095
:1005B000EEE71046704700002DE9F04F044685B085
:1005C000851C00200F46904600F0BAFB454806689F
:1005D0003E60D0E90132134401339B1B824600F296
:1005E0001C4600F5836900F21447AB421AD300227F
:1005F000B8F1000F6FD0052363F3070264F389128B
:10060000DAF80010DAF808300B4003330D444AF8EA
:1006100023200020CAF8005000F094FB012005B010
:10062000BDE8F08F0121304600F0B8FB484600F0ED
:10063000CBFB384600F0C8FBDAF80400DAF808B063
:10064000009000EA0B0003300AEB80006946FFF7D8
:1006500095FF009B50BB0BEA03020AEB820203F1F9
:10066000020CD2680192013303EA0B0B0AEB8B0BED
:1006700002F00302012ACDF800C0DBF80C1022D0F2
:10068000022A16D08346384600F0A1FB10B1009B29
:10069000CAF804305946304600F080FBDAE90123FD
:1006A0001344DAF8002001339B1A9EE70BEA03009B
:1006B000C9E7BDF806309B0903334FEA114B0CEB39
:1006C00093030093DFE7BDF80430C3F383134FEACD
:1006D000114B6344F5E7062363F3070264F39F526B
:1006E0008EE700BF4801002030B50A4C71B10A4ABC
:1006F0000A49121BD20800239A4201D1002030BDC2
:1007000031F82350854202D00133F5E7034654F80F
:100710003300F4E71C2F0000642F000000000020CD
:10072000094B013903EBC000032909D8DFE801F0C8
:100730000A02040604207047007970474079704728
:1007400000207047022070471C2F0000034BD3E9A4
:100750000030C31A58425841704700BF480100207A
:100760002DE9F04385B0FFF7F1FF0646002840F081
:10077000F7807C4DC5F81804BFF34F8F6868AC68EC
:1007800000902040033005EB80006946FFF7F6FE3D
:10079000009B18B1D5F81824002A5FD004EA0302A0
:1007A000991C013305EB8202234005EB8303D268D9
:1007B000DB68029302F00303022B0192009162D1E5
:1007C000BDF8063068484FEA9318B8F1500FC1469B
:1007D00028BF4FF0500969F38F1309F10801ADF8F4
:1007E000063000F047FD0746002800F0A48000F026
:1007F00070FD01A900230822384600F07DFD009914
:1008000024EA01060136B600B14535D95FFA89F907
:100810007EB3F6B2A9EB0609214003315FFA89F4F1
:10082000B146524E05EB810108234A46384600F096
:1008300063FD36B109F1080322463146384600F01F
:100840005BFD009B08F1030803EB98030093D5F8C8
:100850001834002B4BD1D5F810445BE02A689A423B
:1008600004D86A60304605B0BDE8F08304EA0300AE
:1008700088E73E493446D7E72140033108234A46FA
:1008800005EB8101DAE7012B55D1BDF8043036487C
:10089000C3F38311062928BF062161F389130231AE
:1008A0008900ADF8043000F0E5FC0746002842D08E
:1008B00000F00FFD0023082201A9384600F01CFDBE
:1008C0000026BDF80420C2F38312B300964203F160
:1008D0000803BCD200994A1C21400331009205EB69
:1008E00081010422384600F007FD0136E9E7384669
:1008F00000F0F3FCFFF72AFF80F00100C6B2B1E779
:10090000E3685B7923B1236839461B682046984722
:10091000E3681C68002CF3D1384600F0DEFC20466A
:1009200000F00EFAD5F818340BB9009B6B6000206C
:1009300000F008FADEE7D5F8104454B90C4B0D4826
:100940000D49C01AC008000440F0020000F06EF823
:10095000D0E7236820469B689847E3681C68ECE76B
:1009600000267FE748010020742F0000540100207A
:100970001C2F0000442F0000C52F00002DE9F74F69
:10098000284C80460F46924601A9012218469B46F4
:10099000D4F80890FFF710FE80B3019D0026A91C33
:1009A0005E4506EB010233D100211F4800F0D6F965
:1009B00080F310006A1C02EA090204EB82020004C0
:1009C00005EA0903033340EA1840D06014F82320F5
:1009D00068F3C50204F8232034F8232066F3891253
:1009E00024F8232054F8232067F39F2244F823207F
:1009F00002F0F80242F0010204F8232094F82034B7
:100A00001BB1FFF7ADFE0028FBD103B0BDE8F08FAE
:100A100009EA020204EB82025AF82630D36001365A
:100A2000BEE700BF480100206405002000231A46ED
:100A3000FFF7A4BF094A38B50123D2F8104482F861
:100A400020341D4604B938BDE3685D712368204633
:100A50005B689847E3681C68F4E700BF4801002022
:100A6000037A052B10B50C460FD0437A23B1084A00
:100A70000849204600F0EEF90749204600F0EAF95F
:100A80002046BDE8104000F0DAB9002AF8D0F3E7BC
:100A90000F3000001430000034300000C38873B5FC
:100AA00004460D4633B1144A00921449144A2846AC
:100AB00000F0D0F9217A05291CD0637A4BB1A088C7
:100AC000FFF72EFE0F4B104953F82020284600F068
:100AD000C1F9227A0D4BA08853F822600021FFF75C
:100AE00003FE0B4903463246284602B0BDE870407B
:100AF00000F0B0B902B070BD0F3000001F30000030
:100B000017300000DC2F00001430000044300000DB
:100B1000373000002DE9F04385B01F460C9D0023BF
:100B200006460C46904695F80C902B73294638469D
:100B3000FFF7B4FFB8F1060F09D8DFE808F0041298
:100B4000181F283340003146284600F083F9002260
:100B500029463846FFF784FF85F80C9005B0BDE8BC
:100B6000F08322683146284600F074F9EFE7D4E9B3
:100B700000233146284600F06DF9E8E7A3680093AA
:100B80003146D4E90023284600F064F9DFE7E36842
:100B90000193A36800933146D4E90023284600F06E
:100BA00059F9D4E723690293E3680193A36800939A
:100BB0003146D4E90023284600F04CF9C7E76369C1
:100BC000039323690293E3680193A368009331467A
:100BD000D4E90023284600F03DF9B8E708292DE9BB
:100BE000F84F80460E4617461C463AD8002593F823
:100BF0000C901D7319461046FFF750FFDFF884A0D4
:100C0000DFF884B0AE422ED918F8052059462046A8
:100C100000F020F90135082DF4D11849DFF86CB047
:100C2000204600F017F94FF0000A564520D918F871
:100C30000A507E2D03D8284601F02EFD00B92E253E
:100C40002A465946204600F005F90AF1010ABAF190
:100C5000080FEAD1012221463846FFF701FF84F848
:100C60000C90BDE8F88F5146204600F0F3F8D1E72C
:100C70000349204600F0EEF8E7E700BF0A30000025
:100C80000830000006300000003000000C3000008A
:100C90001FB50021039001AA44F20100CDE9011122
:100CA00000F004F805B05DF804FB000010B572B662
:100CB000FFF7C0FEFFF754FD0028FBD1104B114C8D
:100CC0001149E41AE408240444F00100FFF7AEFEE1
:100CD0000E4B1B68DB0700D500BE0D4944F0020037
:100CE000FFF7A4FEBFF34F8F0A490B4BCA6802F40B
:100CF000E0621343CB60BFF34F8F00BFFDE700BF3F
:100D00001C2F0000442F0000AE300000F0ED00E08A
:100D1000BA30000000ED00E00400FA0572B6024AA5
:100D200013680133136070476C050020034A136891
:100D3000013B136003B962B6704700BF6C05002029
:100D4000FFF7ECBFFFF7F2BF024B034A1B681068C6
:100D5000184700BF780500207005002050E8002FDC
:100D60000B4640E8003C9CF0000FF7D1104670475E
:100D700050E8003F43EA010240E8002C9CF0000FDD
:100D8000F6D11046704750E8002F02EA010340E810
:100D9000003C9CF0000FF6D11046704750E8003F31
:100DA00003EB010240E8002C9CF0000FF6D1104646
:100DB000704750E8003FA3EB010240E8002C9CF094
:100DC000000FF6D1104670470121FFF7D1BF002177
:100DD000FFF7D9BF38B504460020FFF7B1FF2268FE
:100DE00063681168994213D9481E106011F8015CBC
:100DF000E368218A01FB0535A36811791B1ADBB270
:100E0000994200D213710020FFF79CFF284638BD9D
:100E10000025F8E738B5054600200C46FFF790FF9F
:100E20002A681368591C1160E968641A298AB4FB9E
:100E3000F1F41C700020BDE83840FFF783BF8268E2
:100E400010B504462AB14369016800699847002338
:100E5000A36010BD0EB403B5039921B104AB01AA80
:100E6000019300F075F802B05DF804EB03B0704731
:100E70000A2938B504460D4602D10D21FFF7F8FFC7
:100E8000A3682268591CA160D554D4E901329A4262
:100E900004D32046BDE83840FFF7D1BF38BD00007D
:100EA0002DE9F84F9946DDE90A4317468246884600
:100EB0000A460126BA420FD24E4538BF4E4613F0BD
:100EC000010B01D164B900240125B9F1010F1AD930
:100ED00009F1FF397D43F8E7B2FBF7F20136E9E7A4
:100EE0009B070ED5B9F1000F0CBF30252025A64277
:100EF000EAD2013C29465046FFF7BAFF002CF6D152
:100F0000E1E72025F3E7B8FBF5F39F42E2D9DFF8EC
:100F10003C90B8FBF5F3504619F8031005FB138815
:100F2000FFF7A6FFB5FBF7F3BD4207D2BBF1000FF9
:100F300002D00CB1A64203D3BDE8F88F1D46E8E706
:100F400020215046013CFFF793FFF2E7D13000002B
:100F50002DE9F74F054617468846002900F03081F5
:100F600018F8011B49B92B7B002B00F0298128467A
:100F700003B0BDE8F04FFFF762BF252940F0C08005
:100F8000002698F800302D2B424608F1010823D0A6
:100F9000302B24D02B2B25D000242A2B02F1010149
:100FA00023D13B681A1D1B683A601C440A4613781B
:100FB0002E2B26D101324FF00009104610F8011BEC
:100FC000A1F1300CBCF1090F1DD80A2303FB091352
:100FD000A3F130090246F0E746F00106D1E746F0FA
:100FE0000206CEE746F00406CBE711F8013CA3F178
:100FF00030000928DBD80A2202FB0434303C0A46C0
:10100000CBE74FF0000912F8011B01F0FB00682844
:101010009046F8D069290ED04AD8582964D006D80D
:1010200025296DD098F80030002B99D19BE76329D2
:1010300062D06429F6D13A68D2F800A0111D8AEA7C
:10104000EA723960A2EBEA724FF0010B092A5BDC0D
:10105000CB4538BFCB462CB1BAF1000F01DB72078C
:1010600000D5013CB30702D5B9F1000F04D0F00759
:1010700002D4002C4ED10024BAF1000F52DACAF18A
:10108000000A2D212846FFF7F3FE06F00302022A8C
:1010900005D1B9F1000F02D1002C47D10024CDE9D0
:1010A00000464B460A2251462846FFF7F9FEB9E7AB
:1010B00073294CD014D87029B4D13B681A1D3A60FA
:1010C000302128461C68FFF7D3FE78212846FFF719
:1010D000CFFE00220823CDE9003221461022E3E7AB
:1010E00075292BD078299DD139680A1D3A60CDE940
:1010F00000464B46102228E03B681A1D19783A60DA
:101100002846FFF7B5FE8DE70A230BF1010BB2FB72
:10111000F3F29BE7A345AFD220212846013CFFF71D
:10112000A7FEA6E77107B0D52B21ABE7A345B6D242
:1011300030212846013CFFF79BFEADE73968CDE939
:1011400000460A1D3A604B460A220968ACE73B6834
:101150001A1D3A6016F00106D3F800A020D1BAF1AA
:10116000000F03D0504601F006FB0646B44200D9FA
:10117000C4B90AF1FF3A1EE028460136FFF778FEAF
:101180001AF806100029F7D1A642BFF44BAF002C85
:101190003FF448AF20212846013CFFF769FEF3E702
:1011A0000026EDE720212846013CFFF761FEDDE740
:1011B0002846FFF75DFE1AF8011F0029F8D131E734
:1011C00003B0BDE8F08F2DE9F047B0F80690447900
:1011D000D2F800A09DF8208009FB04F4043C0646E8
:1011E0000AEB0300A0420F4688BFA4EB030A191DB7
:1011F000C2F800A0B1FBF9F509FB15114DB9A9EB37
:101200000104544528BF5446BAF1000F04D1BDE88B
:10121000F0873668013DF1E704317B1970182246EA
:10122000B8F1000F0ED001461846AAEB040A01F0EF
:1012300057FAD145254436684C464FF0000128BF87
:101240005446E1E71946F0E7F8B546790146721EC3
:101250000546002393422D6803D30024A64202D8FA
:10126000F8BD0133F6E70F682846FFF7D3FD0134D8
:101270003946F3E72DE9F843068ACD1C0746FFF708
:10128000A9FD043E35440446B5FBF6F5F0B14FF434
:101290008073EDB28380C680013D076081464FF0C8
:1012A0000008A84512D23846FFF794FD064648B11B
:1012B00063790133637108F10108C9F80000076020
:1012C0008146EEE72046FFF7BFFF34462046BDE8E3
:1012D000F88301210430FFF761BD10B501210446F8
:1012E0000430FFF766FD10F0FF0F04D12046BDE883
:1012F0001040FFF7A9BF10BD1FB503920022009256
:1013000003AAFFF760FF05B05DF804FB1FB5039269
:101310000122009203AAFFF756FF05B05DF804FB17
:101320001FB503788DF800304368019383688DF80A
:101330000830C3680393054A054B684653F82130CB
:1013400052F82110984705B05DF804FB7C05002099
:10135000800500201FB503788DF8003043680193A5
:1013600083688DF80830C3680393054A054B6846C7
:1013700053F8213052F82110984705B05DF804FB6E
:101380007C05002080050020F0B5184B077891F807
:101390001DE043F82720164B16460A6943F827201C
:1013A000144B03F807E00C4684460FCC89B06D4619
:1013B0000FC594E80F0085E80F000497BEF1000FF9
:1013C0000AD0002E0C4A694608BF32460CF10400D0
:1013D00000F070FC09B0F0BD002E084A694608BF55
:1013E00032460CF10C0000F055FAF3E780050020BE
:1013F0007C05002084050020211300005513000007
:1014000000F1804000F5C040002382B00360036813
:101410000193019B02B07047800000F1A040D0F81A
:10142000003723F44033C0F80037D0F8003743EAE0
:101430000141C0F8001770472DE9F04F85B0002436
:101440005A4D01944FF48072012102F1804303F55B
:10145000C04390B21B68012B06D1D5F804330B4270
:1014600002D0FFF7CDFF0C430432B2F5907F4FEA74
:101470004101EAD14E4B1B68012B0AD14FF4BE70DB
:10148000FFF7BEFF4FF0A04344F00044D3F81035FF
:10149000019314F0FF0F1AD0464F00250126344265
:1014A00010D0AB0003F1804303F5C043D3F810051F
:1014B000D3F8101557F8253023B1C1F30141C0F31B
:1014C000042098470135082D4FEA4606E7D1002C45
:1014D00064DA00224FF0FF33CDE90223354D0127B6
:1014E0004FF0000A344E54464FF0A04816F9012B35
:1014F000531C46D0D2B222F0C0094FEAD90104A849
:10150000084402F0070310F804CC07FA03F31CEABE
:10151000030F36D005EB090C92099CF930C055F841
:101520002CB0BBF1000F0AD1032A2AD10DF1080E0D
:101530001EF801C04CEA030C0EF801C001E0032ABA
:10154000F4D009F5E07110F80C0C58F8211018428D
:10155000C1F3014105D0022913D1032A0BD1114651
:1015600004E003290DD1032A05D102214846FFF7E3
:1015700053FF0134E4B2BBF1000F02D011464846DC
:10158000D8470AF1010ABAF1040FAFD134B14FF0D4
:10159000A043019AD3F81035934202D105B0BDE8BB
:1015A000F08F0193029B03939AE700BF0060004015
:1015B0007C61004088050020D8050020014B1B6895
:1015C000184700BFE405002038B50B4B98420D4684
:1015D00001D0002038BD0020FFF7B2FB074B1C797B
:1015E00014B901221D601A710020FFF7ABFB002C1B
:1015F000EFD01120EEE700BF00200040E4050020FE
:10160000034B984201BF034B00221A601A717047C6
:1016100000200040E40500201FB54B7DDBB2022B0B
:1016200007D0032B0FD0012B00D1436205B05DF82A
:1016300004FB00238DF804300293039301A88B6808
:1016400089699847F2E701238DF80430D0F83C35DA
:101650000293D0F84C35F0E713B54FF04020D0F8A6
:101660002831DBB1194B1A4900221A601B6800931C
:10167000009B4B7DDBB2012B10D10A68CC68C0F80F
:101680004445C0F848254A680C69C0F83445C0F89C
:101690003825836202234B75FFF7BEFF4FF04020D1
:1016A000D0F8043183B10B4B094900221A601B6842
:1016B0000193019B4B7D022B06D103234B7502B096
:1016C000BDE81040FFF7A8BF02B010BD28410040A0
:1016D000EC050020044100400023435082B04358F1
:1016E0000193019B02B070470A4610B54FF48E710A
:1016F000FFF7F2FF136A9168C95C136A0133136242
:10170000C0F81C1510BD8B690A4610B54FF48471E2
:1017100023B9FFF7E1FFD0F8183510BDFFF7DCFF64
:10172000536AD168D0F81805C854536A013353621C
:10173000F3E700001FB501238DF80030044BCDE91D
:101740000110D3E900126846904705B05DF804FB2C
:101750000806002030B54D4AD2F8043313F4007F58
:1017600085B015464FD0D2F82431002B4BD04FF422
:1017700092711046FFF7B0FF4FF40173C2F80833BF
:10178000434B93F8291009B9012151603F490222C6
:101790008DF80020D1F88024C1F8802403929A6942
:1017A0000292DA6801920022C3E906226846D3E970
:1017B000001290473548D0F81C315BB134494A6972
:1017C0000B6A9A420A464BD991F82830002B47D130
:1017D000FFF78AFF2D4AD2F8443193B14FF4A2713A
:1017E0001046FFF779FF2A4B93F8291009B1012120
:1017F00011609A692AB100229A61586AD968FFF784
:1018000099FF05B030BDD5F804335B07D2D5D5F8C4
:101810000831002BCED01E4C1C482146FFF773FF29
:10182000636AA2699A422346C4D1E269E1684AB177
:101830002369E3600023606AA261E3616362FFF7EA
:1018400079FFB7E794F829200AB901226A600F4AA4
:101850004FF40170C2F8080300229A61586AEEE75B
:101860004FF48E710948FFF737FF5369002BB1D051
:1018700051690291002391688DF800300191536104
:101880006846D2E900139847A4E700BF0020004053
:10189000080600202DE9F843564F047991462C2282
:1018A00002FB0472064692F82A200D46002A40F0F8
:1018B0009A8051490068FFF787FE8046002840F073
:1018C000958029683368481C0BD04FF0A040012256
:1018D0008A40C0F8082501F5E0724FF0030C40F88B
:1018E00022C06868421C1FBF00F5E0724FF0A04C98
:1018F0004FF0000E4CF822E0AA6995F814C0C3F826
:1019000024256A7DBCF1010F4CEA0202C3F86C2564
:10191000C3F81405C3F80C151DD1AA68511C1FBFCC
:1019200002F5E0714FF0A0404FF0000C40F821C0EC
:10193000E968481C0BD04FF0A04C01208840CCF83F
:10194000080501F5E0704FF0030E4CF820E0C3F8F5
:101950000815C3F810252C236343FA18C2F8049025
:101960002A69FA50B9F1000F2AD04FF48E7130680D
:101970002D7FFFF7B1FE30684FF4A271FFF7ACFE88
:1019800032681E4BC2F80433120B51B20029A8BFB3
:1019900001F160404FEA4513BABF194802F00F0544
:1019A00000F56140DBB2B4BF435580F8003302F06C
:1019B0001F02012303FA02F24909124B43F82120C6
:1019C00033680422C3F800252C2303FB0473002290
:1019D000C3E9062283F829205A61012283F82A20CC
:1019E0004046BDE8F8834FF00808F9E74FF01108CA
:1019F000F6E700BF0806002055170000800002002F
:101A000014ED00E000E100E0F8B5047900682D4D28
:101A10000023C0F800352C2303FB04535B6873B12B
:101A2000294BC0F80833020B53B201215B0902F0C5
:101A30001F0201FA02F22033244941F82320D0F892
:101A40000C65D0F81415D0F80835D0F810254FF0F3
:101A5000FF37BE42C0F8147518BF06F5E076C0F82F
:101A60000C75C0F80875C0F810751EBF4FF0A04780
:101A70004FF0020C47F826C04E1C1FBF4FF0A04687
:101A800001F5E071022746F82170511C1FBF4FF08D
:101A9000A04102F5E072022641F822605A1C1FBFE5
:101AA00003F5E0734FF0A042022142F82310FFF744
:101AB000A7FD2C2303FB0454002384F82A30636021
:101AC000F8BD00BF080600208402020000E100E02B
:101AD0002DE9F84F224F06794FF02C0909FB0674C7
:101AE00080466569002D38D16261A16025624FF49E
:101AF0008E71006884F82850FFF7EEFDD8F80000DA
:101B0000012383602146FFF7EFFD6368A1469BB97F
:101B1000D8F800A0D4F814B0236A9B4512D8D8F89E
:101B20000020D2F81C31002BFBD00123D3602C23E2
:101B300003FB067300225A612846BDE8F88F94F82B
:101B4000283043B9DAF81C31002BF8D0494650460A
:101B5000FFF7CAFDE0E70F25E9E71125ECE700BF35
:101B6000080600200023435082B043580193019B94
:101B700002B070471FB501238DF80030044BCDE94A
:101B80000110D3E900126846904705B05DF804FBE8
:101B9000340600207FB5454AD2F82461002E63D078
:101BA00010464FF49271FFF7DDFF02238DF80030ED
:101BB000D2F88034C2F880340393D2F83C350293D3
:101BC0003B4BDA6801920022C3E906226846D3E95A
:101BD00000129047354AD2F844317BB14FF4A271DC
:101BE0001046FFF7BFFF324B996939B10021C3E9B5
:101BF0000611D968D2F83C05FFF7BCFF2B4AD2F892
:101C00002031B3B14FF490711046FFF7ABFF0123C1
:101C1000D360274B596961B1D2F84C15029100226B
:101C200099688DF8002001915A616846D3E9001245
:101C300090471E4AD2F85831A3B14FF4AC71104608
:101C4000FFF790FF1A4B596961B1D2F84C15029118
:101C5000002299688DF8002001915A616846D3E905
:101C60000012904704B070BDD2F81031002BB1D0F3
:101C70004FF488711046FFF775FF0D4BD2F83C0505
:101C800099698842A6D1DC69D96864B1D2F800525A
:101C900025F02005C2F800521A699C61DA60DE6105
:101CA000FFF768FF96E79C61FAE700BF002000405D
:101CB000340600202DE9F8435C4F06799146242232
:101CC00002FB0672044692F820200D46002A40F0DE
:101CD000A78057490068FFF777FC8046002840F04E
:101CE000A28029682368481C0BD04FF0A040012235
:101CF0008A40C0F8082501F5E0724FF0030C40F867
:101D000022C06868421C1FBF00F5E0724FF0A04C73
:101D10004FF0000E4CF822E0AA6995F814C0C3F801
:101D200024256A7DBCF1010F4CEA0202C3F86C2540
:101D3000C3F80C15C3F814051DD1AA68511C1FBFA8
:101D400002F5E0714FF0A0404FF0000C40F821C0C8
:101D5000E968481C0BD04FF0A04C01208840CCF81B
:101D6000080501F5E0704FF0030E4CF820E0C3F8D1
:101D70000815C3F8102524237343FA18C2F80490F9
:101D80002A69FA50B9F1000F39D04FF488712068F0
:101D90002D7FFFF7E7FE4FF490712068FFF7E2FE1A
:101DA0004FF492712068FFF7DDFE4FF4A2712068B6
:101DB000FFF7D8FE20684FF4AC71FFF7D3FE22681E
:101DC0001C4BC2F80433120B51B20029A8BF01F119
:101DD00060404FEA4513BABF174802F00F0500F5FF
:101DE0006140DBB2B4BF435580F8003302F01F02FC
:101DF000012303FA02F24909104B43F8212023681A
:101E00000822C3F80025242303FB06730022C3E93C
:101E100006225A61012283F820204046BDE8F8835B
:101E20004FF00808F9E74FF01108F6E734060020F4
:101E3000951B00001003420014ED00E000E100E0FB
:101E4000F8B5374D0479242303FB045306465B6839
:101E5000006873B1334BC0F80833020B53B2012151
:101E60005B0902F01F0201FA02F220332E4941F809
:101E70002320D0F80032012223F02003C0F80032E2
:101E80004FF4AC714260FFF76DFE3068C260D0F86D
:101E90005831002BFBD00023C0F80035D0F80C657A
:101EA000D0F81415D0F80835D0F810254FF0FF37CA
:101EB000BE42C0F80C7518BF06F5E076C0F8147580
:101EC000C0F80875C0F810751EBF4FF0A0474FF05E
:101ED000020C47F826C04E1C1FBF4FF0A04601F56C
:101EE000E071022746F82170511C1FBF4FF0A0413E
:101EF00002F5E072022641F822605A1C1FBF03F56A
:101F0000E0734FF0A042022142F82310FFF778FB64
:101F1000242303FB0454002384F820306360F8BDBD
:101F2000340600201003420000E100E001F06043AD
:101F3000B3F1005F2DE9F041074638D11E4B067919
:101F4000242505FB063598466C69002C31D16A6161
:101F5000A96000684FF49071FFF704FE4FF4AC7174
:101F60003868FFF7FFFD3B686A69A968C3F8441544
:101F7000C3F8482501229A606A68AAB9D3F82021DB
:101F8000D3F858411AB9002CF8D00F2407E0002CE0
:101F9000FBD10122DA60D3F85821002AFBD0242398
:101FA00003FB0686002373612046BDE8F081102400
:101FB000FAE71124F8E700BF34060020104B1B227B
:101FC000C3F808251A210222C3F81025C3F80C15FE
:101FD0001721C3F814150021C3F85415C3F80025C0
:101FE000084A01211160084AC3F83425074906222E
:101FF000C3F83825C3F84415C3F84825704700BF17
:102000000030004028300040580600205E060020C6
:10201000064B66216322997065211A70D97061227E
:1020200062215A7019715A71704700BF580600201A
:1020300070B5084D084E002415F8011B30460134D8
:1020400000F016F9062CF7D10448BDE8704000F006
:102050000FB900BF580600200531000035300000E0
:1020600007B5FFF7ABFF154C154DFFF7D1FF4FF04C
:10207000A0430C22C3F85C2726464FF0A042D2F8BA
:10208000103513F40003FAD1236023680193019BF8
:1020900001232B603368002BFCD0FFF7C9FF01231D
:1020A0002B60084B084AC3F8342508490622C3F8B8
:1020B0003825C3F84415C3F84825DEE7043100404D
:1020C0002830004000300040580600205E06002006
:1020D0000369C1688B429DBF8268D21802F1FF324A
:1020E00003F1FF3394BF501A581A70472DE9F0419D
:1020F000D0E9027405463E1B40689642204488465B
:10210000144404D900F0ECFAEC60BDE8F0813246EA
:10211000E41B00F0E5FA224608EB06016868F1E7E7
:102120002DE9F843C5680646894617464FF0000872
:102130003469B3687068A54228BFE418013C621B8B
:102140005C1BBC4228BF3C46944228BF144649460B
:102150002844224600F0C4FAB3682544AB4208BFC5
:1021600000253F1BA044A144F560E1D14046BDE8F5
:10217000F883000010B5114C114AA2610223C4E992
:102180000433104BE361A2644FF400730E4A2362E0
:10219000E264002310220D49A362E01D6362E36242
:1021A000A3656365E365226500F0C3FA084920462C
:1021B00000F0BFFA2023A37110BD00BF6406002009
:1021C00008310000EC060020DC0600201131000080
:1021D00015310000F8B5184C182300FB033503FB3C
:1021E00000402544C46A012C0F46164611D024B184
:1021F000022C1BD000242046F8BD2846FFF768FFBC
:10220000B042F8D3324639462846FFF76FFF3446CE
:10221000F1E72846FFF75CFF8642344628BF0446B4
:10222000224639462846FFF761FFE4E72846BDE825
:10223000F840FFF775BF00BF6406002070B50B4B78
:102240001B7804460D4616460BB9FFF793FF002096
:10225000FEF776FD324629462046FFF7BBFF0446CF
:102260000020FEF76FFD204670BD00BF6406002011
:102270000FB410B5A2B024AB802153F8042B019306
:1022800002A800F01FFA802804460ADD802202A975
:102290000020FFF7D3FF204622B0BDE8104004B075
:1022A00070470028F7DD0246F1E700000C4B1B7871
:1022B000062B10D10B4B1B681A070CD10A4B186860
:1022C00000F0F003302B08D000F0E000A0F1400354
:1022D000584258417047002070470120704700BFA6
:1022E000E00F00F0E40F00F0E80F00F0094B1B785E
:1022F000062B0CD1084B1B681A0708D1074B18682E
:1023000000F0F000A0F1300358425841704700201F
:10231000704700BFE00F00F0E40F00F0E80F00F09E
:1023200008B5FFF7C3FF28B17D4B7E4A1B68C3F396
:1023300004231360FFF7DAFF10B17B4B7B4A1A606E
:10234000FFF7B4FF28B17A4B7A4A1B68C3F34233D4
:102350001360FFF7CBFF20B1774AD36823F0807377
:10236000D360FFF7A3FF40B14FF080430022C3F8D2
:102370000C21C3F81021C3F83825FFF7B7FF10B1BF
:102380006E4B03221A60FFF7B1FF40B16C4B052280
:102390001A6001229A6700229A603F225A60694BB4
:1023A0001B78062B50D1684B1B6819074CD1674B23
:1023B0001B6803F0F003502B46D14FF08052644B62
:1023C000D2F80414C3F82015D2F80814C3F8241561
:1023D000D2F80C14C3F82815D2F81014C3F82C1531
:1023E000D2F81414C3F83015D2F81814C3F8341501
:1023F000D2F81C14C3F84015D2F82014C3F84415C1
:10240000D2F82414C3F84815D2F82814C3F84C1590
:10241000D2F82C14C3F85015D2F83014C3F8541560
:10242000D2F83414C3F86015D2F83814C3F8641520
:10243000D2F83C14C3F86815D2F84014C3F86C15F0
:10244000D2F84424C3F87025FFF730FF28B1414B80
:10245000414A1B6803F04F031360FFF727FF48B1A1
:102460004FF08043D3F80024D20744BF6FF001023D
:10247000C3F80024394B1B68062B08D1384B1B6866
:10248000062B01BF374A136843F480631360364A52
:10249000D2F8883043F47003C2F88830BFF34F8F0E
:1024A000BFF36F8F4FF01023D3F80022002A03DB15
:1024B000D3F80432002B2FDA2C4B0122C3F8042569
:1024C000D3F80024002AFBD04FF010221521C2F8C7
:1024D0000012D3F80024002AFBD04FF0102315225D
:1024E000C3F80422214B1A46D3F800140029FBD06C
:1024F0000021C3F80415D2F80034002BFBD0BFF341
:102500004F8F19491A4BCA6802F4E0621343CB603B
:10251000BFF34F8F00BFFDE7164B174A1A6008BD87
:10252000240300104035014074C007400DF0ADBADF
:10253000440200103C050040F0ED00E0A005004022
:1025400010560040E00F00F0E40F00F0E80F00F03C
:1025500000C0004058020010E40E0040300100109E
:10256000340100103C17004000ED00E000E00140A5
:102570000400FA051C0000200090D0037F2805D835
:10258000034B185C034B5B5C18407047002070479E
:102590001C3100009C310000A0F16103192B98BF91
:1025A00020387047A0F14103192B98BF20307047A5
:1025B0007F2805D8034B185C034B5B5C18407047C1
:1025C000002070471C3100009C310000A0F1610325
:1025D000192B98BF20387047A0F14103192B98BFE1
:1025E000203070477F299ABF017001206FF02E00C4
:1025F00070475AB10A787F2A0AD800B102600021D8
:1026000019605960501A18BF0120704700207047A8
:102610006FF02E00704738B504460846A26842B1F4
:10262000236861685D1C8D4208BF00208B4208D280
:10263000D054E3682BB121686268914201D22146EF
:10264000984723680133236038BD70B54C1E09D408
:102650001646C5B229463046FFF7DDFF013CB4F10E
:10266000FF3FF7D170BD10F0100F09D108B500F48D
:102670000070002814BF30202020FFF7E6FF08BDBF
:102680007047000008B5034B5B689B681B68984760
:1026900008BD00BF2000002008B50921FFF7F2FFA8
:1026A00008BD037853B159B10144034613F8012F13
:1026B00012B18B42FAD10B46181A70470346FBE75A
:1026C0000346F9E710B584B0144602900022039245
:1026D00001911A462146684600F07EF804B010BD0C
:1026E000844640EA010313F0030F18D18446202AE0
:1026F0000BD32DE9F007B1E8F807A0E8F807A2F13D
:102700002002202AF7D2BDE8F007042A07D351F8A7
:10271000043B40F8043BA2F10402042AF7D2002A49
:1027200005D011F8013B00F8013B013AF9D16046B0
:102730007047024610F0030F16D111F0030F13D1AA
:102740002DE9F0004FF001374FF0803351F8044B82
:10275000A4EB070525EA04051D4002D142F8044B0D
:10276000F4E7A1F10401F0BC11F8013B02F8013BD0
:10277000002BF9D1704700F1010110F0030F11D0C7
:1027800010F8012B002A23D010F0030F0AD010F804
:10279000012B002A1CD010F0030F03D010F8012BDE
:1027A000002A15D02DE970004FF001324FF0803330
:1027B00050F8044BA4EB020525EA04051D4000D1A6
:1027C000F6E7A0F1040070BC10F8012B002AFBD141
:1027D000A0EB0100704700002DE9F04F89B00746DB
:1027E0000C46039200230360DFF82CB670E300254B
:1027F00002E045F040051C46234613F8010BA0F10A
:1028000020023E2A00F2948001A151F822F000BF7C
:10281000F327000031290000312900000D290000B4
:10282000312900003129000031290000132900005E
:102830003129000031290000312900001F29000042
:10284000312900002529000031290000312900002C
:102850002B29000031290000312900003129000016
:102860003129000031290000312900003129000000
:1028700031290000312900003129000031290000F0
:1028800031290000312900003129000031290000E0
:1028900031290000312900003129000031290000D0
:1028A00031290000312900003129000031290000C0
:1028B00031290000312900003129000031290000B0
:1028C00031290000312900003129000031290000A0
:1028D0003129000031290000312900003129000090
:1028E0003129000031290000312900003129000080
:1028F0003129000031290000312900003129000070
:1029000031290000312900001929000045F0800517
:1029100071E745F400456EE745F480556BE745F0F7
:10292000200568E745F0100565E745F4007562E7A6
:102930002A2821D1039A111D0391D2F800A0BAF1DF
:10294000000FBCBFCAF1000A45F010051878A31C9F
:102950002AEAEA7A2E2826D00021742847D07A283D
:1029600045D06C2800F0C4804C2800F0C78068284F
:1029700000F0D4801C463DE0A0F13002D2B2092A1A
:1029800088BF4FF0000AE3D84FF0000A0AEB8A0A2A
:10299000303800EB4A0A13F8010BA0F13002D2B232
:1029A000092AF3D9D4E718782A280AD1039A111DE5
:1029B00003911168587802330029CEDB45F4807505
:1029C000CBE70133A0F13002D2B2092A88BF00213F
:1029D000F4D8002101EB8101303800EB410113F8FC
:1029E000010BA0F13002D2B2092AF3D9E4E71C4668
:1029F00014F8010B782800F28480DFE810F08502DB
:102A000082008200820082008200820082008200B6
:102A100082008200820082008200820082008200A6
:102A20008200820082008200820082008200820096
:102A30008200820082008200820082008200820086
:102A400082008200820082009B008200820082005D
:102A50008200820082008200820082008200820066
:102A60008200820082008200820082008200820056
:102A70008200820082008200820082008200820046
:102A80008200820082008200820082008200820036
:102A90008200820082008200820082008200820026
:102AA0008200820082008200820082008200110186
:102AB0008200820082008200820082008200820006
:102AC00082008200A0004701820082008200820012
:102AD00047018200820082008200BA003401F600C1
:102AE00082008200CB00820040018200820013013C
:102AF0001C4614F8010B45F001057BE745F0010584
:102B00001C46C14B1E68002E00F0E28103AB01930E
:102B1000009153462A463946B047D9E118786828CB
:102B200003D05C1C45F0040564E745F008059C1CD7
:102B300058785FE725213846FFF76DFDC8E1039B14
:102B40001A1D03921E780AF1FF3A3A46514628466A
:102B5000FFF789FD31463846FFF75DFDA94619F0BC
:102B6000100F00F0B5813A4651462020FFF76DFD69
:102B7000AEE115F0080F06D03A68039B191D0391CA
:102B80001B681A70A4E1039B1A1D03921B683A6824
:102B90001A609DE1039B1A1D0392D3F800809B4BA2
:102BA000B8F1000F08BF9846464625F4007915F4A1
:102BB000807F15D04046FFF774FD0546AAEB050A55
:102BC0003A4651464846FFF74EFD002DC7D04544D2
:102BD00016F8011B3846FFF71EFDAE42F8D1BEE7DE
:102BE0004046FFF7C8FD0546E8E7039B1A1D039220
:102BF0001B6805F08002002A0CBF0026232645F43E
:102C0000807508211A46002B00F02C8105AB4FF08F
:102C1000000805F4005CA64660468C460146D1E0FB
:102C200045F4005515F0800F1BD043F2780643F2AF
:102C30005803782818BF1E4615F4807F01D025F46C
:102C4000007515F4804F34D0039B1A1D03921B6846
:102C500015F0040F20D01BB2002B21DA5B422D2689
:102C60002FE00026E8E705F08003002B0CBF0026CC
:102C7000302615F4807FE4D025F40075E1E715F4E3
:102C8000807F07D025F400750026DAE745F48045FB
:102C90000026D6E70026D4E715F0080FDCD0DBB21B
:102CA00015F0200F61D105F04002002A18BF202640
:102CB00007E0039B1A1D03921B6815F0040F4FD009
:102CC0009BB215F4807F14BF25F40075012158389C
:102CD000202800F2C48001A252F820F0052C000048
:102CE0005F2E00005F2E00005F2E00005F2E0000B0
:102CF0005F2E00005F2E00005F2E00005F2E0000A0
:102D00005F2E00005F2E00005F2E0000952D00005A
:102D10005F2E00005F2E00005F2E00005F2E00007F
:102D2000952D00005F2E00005F2E00005F2E00003A
:102D30005F2E00005F2E00006F2D0000052C0000AC
:102D40005F2E00005F2E00005F2E00005F2E00004F
:102D5000952D00005F2E00005F2E0000052C000066
:102D600015F0080FADD0DBB2ABE72B26A9E71A466A
:102D70004FF000087BB305A84FF0000803F00703ED
:102D8000303300F8013B08F10108D2081346002A4D
:102D9000F4D120E018464FF00008E3B14FF00008EE
:102DA00005F4004E4FF02C0973468E46194647E055
:102DB00002F00F00164C205C03F8010B08F101082B
:102DC000120906D00029F3D002F00F00114C205C4C
:102DD000F2E761467446A1EB080121EAE179AAEB2A
:102DE000090AAAEB080AFF2E3FD9AAF1020A15F434
:102DF000007F3FD0C6F307213846FFF70CFCF1B245
:102E00003846FFF708FC41E0EC0800207C33000066
:102E10005C3300006C330000CDCCCCCC08AB03EBB2
:102E2000080CABFB0032D20802EB8203A0EB430399
:102E300030330CF80C3C08F1010809280DD9104674
:102E40000029EBD008F00303032BE7D108AB434480
:102E500003F80C9C08F10108E0E77146BBE74FF06E
:102E60000008B8E74FF00008B5E7002E4FD115F481
:102E7000007F0BD13A4651462846FFF7F4FBFF2E60
:102E800098BF4FF0000A14D8002EB8D13A465146E8
:102E90002846FFF7E8FB3A4649463020FFF7D5FBC6
:102EA000B8F1000F11DD0DF1140908F1FF38C84425
:102EB00003E04FF0000A9DE7B046464616F80119B8
:102EC0003846FFF7A8FBC145F6D115F0100F09D120
:102ED00014F8011B61B125293FF489AC3846FFF78E
:102EE0009AFBF5E73A4651462020FFF7AEFBEFE7A5
:102EF000BB682BB13A6879688A423CBF002199547B
:102F0000386809B0BDE8F08F4FF0FF30F9E70AF1FB
:0C2F1000FF3A15F4007FB7D1ACE700BF1A
:102F1C00EA30000000000000F1300000000000006A
:102F2C00F530000000000000FA3000000000000046
:102F3C00FF30000000000000D62F0000000003034B
:102F4C00A330000000000000C730000000000000AB
:082F5C00E1300000000000005C
:102F6400A82F000000000000B42F0000140000206F
:102F7400780000204001002048010020800000204B
:042F84001800000031
:102F8800FFFFFFFFFFFFFFFFFFFFFFFFFFFFFFFF49
:102F980000000000000000000000D601060100004B
:102FA800ED040000510500009D0400007561727475
:102FB8005F6C6F675F6261636B656E64004261633B
:102FC8006B656E647320666C757368656400617008
:102FD800700000000F30000058300000173000006B
:102FE8006030000068300000703000007830000069
:102FF8008030000088300000202530327800202002
:1030080020007C002563001B5B306D002573001BCE
:103018005B313B33316D0025734C6F6773206472ED
:103028006F70706564202825642925730D0A003C9B
:1030380025733E2025733A200000000000000000A0
:10304800B430000090300000983000009D3000003F
:103058001B5B313B33306D001B5B313B33326D0002
:103068001B5B313B33336D001B5B313B33346D00ED
:103078001B5B313B33356D001B5B313B33366D00D9
:103088001B5B313B33376D007761726E696E670089
:10309800696E666F006465627567006170705F6273
:1030A8007574746F6E00466174616C206572726F1E
:1030B800720053797374656D20726573657400616D
:1030C80070705F74696D6572003031323334353633
:1030D800373839414243444546736F72746C69739B
:1030E80074004750494F54450050525300535049BB
:1030F800530055415254005541525445002558003B
:103108005465726D696E616C0052545400534547A2
:1031180047455200202020202020202020682828F1
:103128002828202020202020202020202020202087
:10313800202020204810101010101010101010100F
:1031480010101010848484848484848484841010EF
:10315800101010101081818181818101010101010C
:103168000101010101010101010101010101011038
:1031780010101010108282828282820202020202E1
:103188000202020202020202020202020202021009
:1031980010101020000703200417020108571040E0
:1031A8008000000050330000143200002833000073
:1031B80053756E004D6F6E00547565005765640059
:1031C800546875004672690053617400000000007D
:1031D8004A616E00466562004D617200417072007E
:1031E8004D6179004A756E004A756C00417567003B
:1031F800536570004F6374004E6F7600446563003A
:1032080000000000414D00504D0000004C3300000C
:1032180048330000483300004833000048330000BA
:1032280048330000483300004833000048330000AA
:1032380048330000FFFFFFFFFFFFFFFFFFFFFFFF17
:10324800FFFF000088320000B8310000C4320000DF
:10325800D83100000C3200006C3200001C33000032
:1032680078320000256D2F25642F25790000000095
:103278002561202562202565202554202559000038
:1032880053756E646179004D6F6E64617900547591
:103298006573646179005765646E6573646179006C
:1032A8005468757273646179004672696461790063
:1032B8005361747572646179000000004A616E752B
:1032C800617279004665627275617279004D61724A
:1032D800636800417072696C004D6179004A756ECF
:1032E80065004A756C79004175677573740053659C
:1032F8007074656D626572004F63746F6265720009
:103308004E6F76656D62657200446563656D6265D2
:103318007200000025483A254D3A25530000000068
:103328007D25000099250000A5250000B125000095
:10333800CD250000D9250000E5250000F325000073
:10334800000000002E00000043000000504F5349C9
:10335800580000003031323334353637383961623D
:103368006364656630313233343536373839414233
:0C33780043444546286E756C6C2900002B
:103384000000000000200040000000000020004079
:103394000000000000000000FF0000000090D003C7
:1033A400AC310000AC310000AC310000AC310000A5
:0433B400AC31000038
:040000030000037581
:00000001FF
